:020000040800F2
:10000000FF4F0020458200088D8200088D82000885
:100010008D8200088D8200088D820008000000009B
:100020000000000000000000000000008D820008B9
:100030008D820008000000008D8200088D8200087B
:100040008D8200088D8200088D8200088D82000854
:100050008D8200088D8200088D8200088D82000844
:100060008D8200088D8200088D8200088D82000834
:100070008D820008F11A00088D8200088D82000828
:100080008D8200088D8200088D8200088D82000814
:100090008D8200088D8200088D8200088D82000804
:1000A0008D8200088D8200088D8200088D820008F4
:1000B0006D0700088D8200088D8200088D8200087F
:1000C0008D8200088D8200088D8200088D820008D4
:1000D0008D820008611D00088D8200088D82000855
:1000E0008D8200088D8200088D82000800000000CB
:1000F0000000000000000000000000000000000000
:0C01000000000000000000005FF808F1A3
:1001100010B5054C237833B9044B13B10448AFF341
:1001200000800123237010BDC808002000000000DB
:1001300090CC0008084B10B51BB108490848AFF334
:1001400000800848036803B910BD074B002BFBD0A3
:10015000BDE81040184700BF00000000CC08002098
:1001600090CC0008C80800200000000080B483B0D4
:1001700000AF0346FB71084997F907305B09FA792C
:1001800002F01F02012000FA02F241F8232000BF12
:100190000C37BD4680BC704700E100E080B582B0FE
:1001A00000AF0FE0FB790A2B02D100F01BF809E049
:1001B0000A4B1B785A1CD1B2084A11701946084ADA
:1001C000FB79535401F09CFE0346FB71FB79FF2B36
:1001D000E8D100BF0837BD4680BD00BF240900201C
:1001E0002809002080B500AF144B1B781A46144B29
:1001F00000219954124801F0ADFE124B1B78DBB27E
:10020000002B15D00E4B1B78232B11D10C4800F07E
:100210001DF80C4B1B78DBB2013BDAB2094B1A70AC
:10022000084B1B78DBB2002B02D0074801F092FE8E
:10023000024B00221A7000BF80BD00BF24090020BD
:1002400028090020800A0020A8CC000880B586B0CC
:1002500000AF7860504B1B78DBB21A4613461B0187
:100260009B1A9B004D4A13447B610023FB740023BF
:10027000FB6070E0BB7C413B192B6CD801A252F8AB
:1002800023F000BF43030008ED02000857030008F5
:100290004D03000857030008270300085703000810
:1002A000570300081D030008570300085703000800
:1002B00057030008570300083103000857030008DC
:1002C00057030008570300083B0300081503000804
:1002D0005703000857030008570300085703000896
:1002E000F7020008010300080B030008FB68DAB2FC
:1002F0007B691A702FE0FB681A467B695A602AE016
:10030000FB681A467B699A6025E0FB681A467B69A0
:10031000DA6020E0FA687B691A611CE0FB681A4623
:100320007B695A6217E0FB681A467B699A6212E0A1
:10033000FB681A467B699A630DE0FA687B69DA62AA
:1003400009E0FB681A467B691A6304E0FB681A46F9
:100350007B695A6300BF07F1130307F10C0107F132
:1003600012007A6800F01EF80346002B82D10C4B75
:100370001A78094B1A70084B1B78DBB2184605F047
:100380003FFE03461A46064B1A701C20FFF7EEFE8E
:1003900000BF1837BD4680BDDC0F0020A40B002035
:1003A000DD0F002080B584B000AFF860B9607A60DE
:1003B0003B603B681B781A467B6813441B78002B14
:1003C00001D1002330E03B681B781A467B68134458
:1003D0001A78FB681A70FB681B78402B03D9FB68FE
:1003E0001B785A2B01D9012300E0002303F00103FD
:1003F000DAB2FB681B78232B14BF01230023DBB286
:100400001340DBB2002B01D000230DE03B681B78CA
:100410000133DAB23B681A703968786800F008F87E
:100420000246BB681A60012318461037BD4680BDDE
:1004300080B487B000AF7860396000237B613B688F
:100440001B781A467B6813443B613B691B78FB733E
:10045000FB7B303BFB73FB7B092B0FD87A69134680
:100460009B0013445B001A46FB7B13447B613B6992
:1004700001333B613B691B78FB73E9E700BF3A69D5
:100480007B68D31ADAB23B681A707B6918461C374E
:10049000BD4680BC704700BF80B400AF00BFBD4602
:1004A00080BC704780B400AF01231846BD4680BCB5
:1004B000704700BF80B582B000AF7860396008F047
:1004C00009F80246162313604FF0FF331846083729
:1004D000BD4680BD80B582B000AF78604FF0FF317F
:1004E0007868FFF7E7FFFEE790B587B000AFF860E8
:1004F000B9607A6000237B610AE0BC68631CBB6062
:10050000AFF300800346DBB223707B6901337B616C
:100510007A697B689A42F0DB7B6818461C37BD46D7
:1005200090BD00BF80B586B000AFF860B9607A605A
:1005300000237B6109E0BB685A1CBA601B7818462F
:10054000AFF300807B6901337B617A697B689A42F3
:10055000F1DB7B6818461837BD4680BD80B584B096
:1005600000AF7860114B1B68002B02D10F4B104A73
:100570001A600E4B1B68FB600C4B1A687B681344B7
:100580006A46934207D907F0A5FF02460C23136081
:100590004FF0FF3306E0054B1A687B681344034AAB
:1005A0001360FB6818461037BD4680BDE808002080
:1005B000F00F002080B483B000AF78604FF0FF33BD
:1005C00018460C37BD4680BC704700BF80B483B06E
:1005D00000AF786039603B684FF400525A600023E6
:1005E00018460C37BD4680BC704700BF80B483B04E
:1005F00000AF7860012318460C37BD4680BC7047B9
:1006000080B485B000AFF860B9607A600023184606
:100610001437BD4680BC70470EB480B482B000AFC2
:1006200078604FF0FF3318460837BD4680BC03B0F2
:10063000704700BF80B582B000AF786007F04AFF16
:1006400002460A2313604FF0FF3318460837BD46B1
:1006500080BD00BF80B582B000AF786007F03AFF80
:100660000246022313604FF0FF3318460837BD4699
:1006700080BD00BF80B483B000AF78604FF0FF331F
:1006800018460C37BD4680BC704700BF80B483B0AD
:1006900000AF786039603B684FF400525A60002325
:1006A00018460C37BD4680BC704700BF80B582B08D
:1006B00000AF7860396007F00DFF02461F2313601A
:1006C0004FF0FF3318460837BD4680BD80B500AFF8
:1006D00007F000FF02460B2313604FF0FF3318466C
:1006E00080BD00BF80B584B000AFF860B9607A60AB
:1006F00007F0F0FE02460C2313604FF0FF3318465C
:100700001037BD4680BD00BF80B483B000AF034644
:10071000FB71084997F907305B09FA7902F01F026B
:10072000012000FA02F241F8232000BF0C37BD4639
:1007300080BC704700E100E080B483B000AF0346A6
:10074000FB71094997F907305B09FA7902F01F023A
:10075000012000FA02F2203341F8232000BF0C37B9
:10076000BD4680BC704700BF00E100E080B500AF2F
:1007700001214FF0804004F085FC02F0E7FA0E4BB7
:100780001B6801330C4A136000F0E4F90B4B1B6843
:10079000002B03D000F0FAF900F012F8064B1B68AA
:1007A00043F65F72934203D1034B1B68024A136006
:1007B00001F0C8F900BF80BDEC080020440A002009
:1007C00080B500AF0F4BDA690E4BDB689A4202D25C
:1007D00000F020F813E00C4B00221A6005F0B6FB85
:1007E0000A4B1B78DBB20133DAB2084B1A70074BA5
:1007F0001B78DBB2012B02D1054801F0ABFB00BF37
:1008000080BD00BF4C0A0020440A0020800A00205E
:10081000ACCC000880B500AF0B4BDA690B4B1B6802
:100820001B6B9A4202D200F013F80BE0064BDA6918
:10083000064B1B685B6B9A4202D300F07FF801E025
:1008400000F000F900BF80BD4C0A0020440A0020DF
:1008500080B500AF00F022F80346002B18D00D4BF6
:100860005B6A0D4A1268D26A13440A4A5362094B02
:100870005A6A094B1B689B6B9A4204D3064B1B6850
:100880009B6B044A5362034B5B6A184600F06AF89C
:1008900000BF80BD4C0A0020440A002080B400AF95
:1008A0000D4BDA6A0C4B9B6A13440B4AD3620A4B1A
:1008B000DB6A0A4A934209D9074BDB6AA3F56A331C
:1008C000A3F5C073044AD362012300E00023184655
:1008D000BD4680BC704700BF4C0A002080A90300C1
:1008E00080B485B000AF78600123FB8105E07B68B0
:1008F0005B087B60FB895B00FB817B68B3F5803F15
:10090000F5D27B68BB607B68012B02D07B68013B22
:100910007B604FF08042FB89013B9BB213854FF017
:1009200080437A6892B29A85FB89BA6802FB03F326
:1009300018461437BD4680BC704700BF80B500AF75
:10094000064BDA69064B1B685B6B9A4202D100F0DA
:1009500029F801E000F044F800BF80BD4C0A0020F7
:10096000440A002080B582B000AF78607B68632BBA
:1009700001D864237B60094A7B68B2FBF3F213461B
:100980001B019B1A9B001846FFF7AAFF0246044B67
:100990009A6200BF0837BD4680BD00BF00A24A046E
:1009A0004C0A002080B400AF0B4B5A6A0B4B1B68FB
:1009B0009B6B9A4203D1084B0022DA6207E0064B98
:1009C000DB6AC3F56A3303F5C073034AD36200BF21
:1009D000BD4680BC704700BF4C0A0020440A00207E
:1009E00080B500AFFFF75AFF0346002B24D0134B0E
:1009F0005A6A124B1B6B9A4208D9104B5B6A104A19
:100A00001268D26A9B1A0D4A536204E00B4B5B6A70
:100A10005B080A4A5362094B5A6A094B1B689B6A76
:100A20009A4204D2064B1B689B6A044A5362034BEA
:100A30005B6A1846FFF796FF00BF80BD4C0A002096
:100A4000440A002080B500AF094B5A6A094B1B6865
:100A50009B6B9A4209D0074B1B689B6B044A5362FD
:100A6000034B5B6A1846FFF77DFF00BF80BD00BFE8
:100A70004C0A0020440A002080B500AF044B00223D
:100A80001A6034220021034807F018FB00BF80BD24
:100A9000440A00204C0A002080B500AF1C20FFF75C
:100AA0004BFE024B00221A7000BF80BD480A002096
:100AB00080B500AF1C20FFF727FE024B01221A7001
:100AC00000BF80BD480A002080B582B000AF7860CA
:100AD0007B685B6A1E4A53621D4B5B6A1846FFF7D0
:100AE00041FF1B4B0022DA627B68DA6A7B68DB6AB3
:100AF0005B1013441A46164B1A637B685B68144AF2
:100B000013617B689B68124A53617B68DB68104AFB
:100B100093617B681B695B105B420D4A13600C4B51
:100B20001B680B4A53600A4B1B68094A93607B6839
:100B30001A78074B83F820207B681B691A46044B00
:100B4000DA60034B0022DA6100BF0837BD4680BD82
:100B50004C0A002080B500AF0B4B1B68002B10D156
:100B600005F00EFA0246084B1A60074B1B68002B73
:100B700005D0054B1B681846FFF7A6FF01E0FFF7FD
:100B80008BFF00BF80BD00BF440A002080B500AFCE
:100B9000184B93F82020184B1A70002000F0D0F862
:100BA00003461A46144B1B781343DAB2124B1A70E1
:100BB000012000F0C5F803461A460F4B1B7813437B
:100BC000DAB20D4B1A70022000F0BAF803461A464A
:100BD000094B1B781343DAB2074B1A7000F03AF84E
:100BE00000F0B0FF034BDB690133024AD36100BF61
:100BF00080BD00BF4C0A0020810A002080B582B071
:100C000000AF7860074B1B787968184600F05EF9F2
:100C10000346002B01D0402300E0BF2318460837CD
:100C2000BD4680BD810A002080B582B000AF7860EB
:100C3000074B1B787968184600F06AF90346002BC9
:100C400001D0002300E0802318460837BD4680BD50
:100C5000810A0020B0B500AF354B1C680020FFF7BB
:100C6000E3FF0346BF221946204602F035F903464A
:100C70001A46304B1A70304B1C680120FFF7D4FF26
:100C80000346BF221946204602F026F903461A46BB
:100C9000284B5A70294B1C680220FFF7C5FF0346FA
:100CA000BF221946204602F017F903461A46214B87
:100CB0009A701F4B1C680020FFF7B6FF03461D46C5
:100CC0000020FFF79BFF03461A462946204602F004
:100CD00003F903461A46174BDA70174B1C680120BC
:100CE000FFF7A2FF03461D460120FFF787FF0346DB
:100CF0001A462946204602F0EFF803461A460D4BE5
:100D00001A710E4B1C680220FFF78EFF03461D462A
:100D10000220FFF773FF03461A462946204602F0D9
:100D2000DBF803461A46034B5A7100BFB0BD00BF43
:100D30009C0B0020840A0020980B0020940B0020BC
:100D400080B588B000AF78600023FB772B4BDB6861
:100D5000FB607B68002B07D1284B1B69BB61052317
:100D60007B6102233B6114E07B68012B07D1234B9D
:100D70005B69BB6106237B6103233B6109E07B6800
:100D8000022B06D11D4B9B69BB6107237B610423AA
:100D90003B617B689B00194A1344F968BA6918469D
:100DA00000F058F80346002B22D001223B6902FADA
:100DB00003F3FB77114B93F820301A467B6942FA14
:100DC00003F303F00103002B09D00D4A7B6852F8AE
:100DD00023305A1E0A497B6841F8232008E0084A5C
:100DE0007B6852F823305A1C05497B6841F8232060
:100DF000FB7F18462037BD4680BD00BF4C0A00204F
:100E0000E00F002080B487B000AFF860B9607A606E
:100E10003B6000237B61FB681B681A467B681344B8
:100E20001A46FB681A60FB681B68002B09DD01236A
:100E30007B61FB681B681A46BB68D31A1A46FB68BD
:100E40001A603B687A691A607B6918461C37BD4690
:100E500080BC704780B485B000AFF860B9607A603C
:100E6000FB681B681A467B6813441A46FB681A60C5
:100E7000FB681B68002B09DDFB681B681A46BB6812
:100E8000D31A1A46FB681A60012300E000231846B3
:100E90001437BD4680BC704780B485B000AF0346B0
:100EA0003960FB71FA793B6842FA03F303F00103FE
:100EB000002B02D00123FB6001E00023FB60FB68F4
:100EC00018461437BD4680BC704700BF80B584B05B
:100ED00000AF03463960FB713B68002B02D102234F
:100EE000FB600AE03B68012B02D10323FB6004E0B6
:100EF0003B68022B01D10423FB60FB79F96818469B
:100F0000FFF7CAFF034618461037BD4680BD00BF35
:100F100080B584B000AF03463960FB713B68002B9D
:100F200002D10523FB600AE03B68012B02D10623B6
:100F3000FB6004E03B68022B01D10723FB60FB79D7
:100F4000F9681846FFF7A8FF034618461037BD4654
:100F500080BD00BF80B582B000AF78607B68264A54
:100F600093420AD101214FF4804001F011FE00218B
:100F70004FF4804001F00CFE3AE07B681F4A934238
:100F80000AD101214FF4003001F020FE00214FF47E
:100F9000003001F01BFE2BE07B68194A93420AD116
:100FA00001214FF4802001F011FE00214FF4802038
:100FB00001F00CFE1CE07B68124A93420AD1012129
:100FC0004FF4002001F002FE00214FF4002001F058
:100FD000FDFD0DE07B680C4A934209D101214FF4DD
:100FE000801001F0F3FD00214FF4801001F0EEFDC0
:100FF00000BF0837BD4680BD0038014000440040B6
:1010000000480040004C00400050004080B58CB0CB
:1010100000AF786039600023FB620023BB620023CD
:101020007B6200233B620023FB617B68FB617B6882
:101030001B8A9BB2FB62FA6A4CF6FF731340FB6299
:101040003B68DB881A46FB6A1343FB62FB6A9AB271
:101050007B681A827B689B899BB2FB62FA6A4EF6B8
:10106000F3131340FB623B689A883B681B89134368
:101070009AB23B685B8913439BB21A46FB6A1343DF
:10108000FB62FB6A9AB27B689A817B689B8A9BB2FF
:10109000FB62FA6A4FF6FF431340FB623B689B8991
:1010A0001A46FB6A1343FB62FB6A9AB27B689A8218
:1010B00007F10803184601F061FCFB692E4A9342D0
:1010C00002D17B69BB6201E03B69BB627B689B89A3
:1010D0009BB21BB2002B0CDABA6A13469B00134476
:1010E0009A001A443B681B685B00B2FBF3F37B6217
:1010F0000BE0BA6A13469B0013449A001A443B68FB
:101100001B689B00B2FBF3F37B627B6A1B4AA2FB6A
:1011100003235B091B01FB62FB6A1B09642202FBC0
:1011200003F37A6AD31A3B627B689B899BB21BB23A
:10113000002B0CDA3B6ADB003233104AA2FB03239C
:101140005B0903F00703FA6A1343FB620BE03B6A97
:101150001B013233094AA2FB03235B0903F00F038F
:10116000FA6A1343FB62FB6A9AB27B681A8100BF7A
:101170003037BD4680BD00BF003801401F85EB51B0
:1011800080B483B000AF78607B684FF416521A6069
:101190007B6800229A807B680022DA807B680022CC
:1011A0001A817B680C225A817B6800229A8100BFD9
:1011B0000C37BD4680BC704780B485B000AF786006
:1011C00039600023FB607B681B8A9BB2FB60FA6876
:1011D0004FF2FF031340FB603B681A883B685B8853
:1011E00013439AB23B689B8813439AB23B68DB88EF
:1011F00013439BB21A46FB681343FB60FB689AB229
:101200007B681A8200BF1437BD4680BC704700BFA0
:1012100080B483B000AF78607B6800221A807B685E
:1012200000225A807B6800229A807B680022DA8044
:1012300000BF0C37BD4680BC704700BF80B483B090
:1012400000AF78600B46FB70FB78002B08D07B6802
:101250009B899BB243F400539AB27B689A8107E062
:101260007B689B899BB223F400539AB27B689A8176
:1012700000BF0C37BD4680BC704700BF80B487B04C
:1012800000AF78600B467B8013467B7000233B6188
:101290000023FB600023BB6000237B617B687B61D4
:1012A0007B88DBB25B09DBB23B617B8803F01F0309
:1012B000FB600122FB6802FA03F3BB603B69012B70
:1012C00003D17B690C337B6109E03B69022B03D1BD
:1012D0007B6910337B6102E07B6914337B617B782F
:1012E000002B06D07B697A691168BA680A431A60D4
:1012F00006E07B697A691168BA68D2430A401A60CD
:1013000000BF1C37BD4680BC704700BF80B483B0AF
:1013100000AF78600B467B8013467B707B78002B98
:1013200008D07B689B8A9AB27B8813439AB27B6809
:101330009A8209E07B689B8A9AB27B88DB439BB2E6
:1013400013409AB27B689A8200BF0C37BD4680BCBE
:10135000704700BF80B483B000AF78600B46FB706D
:101360007B681B8A9BB223F00F039AB27B681A82B8
:101370007B681B8A9AB2FB789BB213439AB27B6854
:101380001A8200BF0C37BD4680BC704780B483B062
:1013900000AF78600B467B807B689B899BB223F40F
:1013A00000639AB27B689A817B689B899AB27B883A
:1013B00013439AB27B689A8100BF0C37BD4680BC4C
:1013C000704700BF80B483B000AF78600B46FB70FD
:1013D000FB78002B08D07B689B899BB243F002030B
:1013E0009AB27B689A8107E07B689B899BB223F065
:1013F00002039AB27B689A8100BF0C37BD4680BC5D
:10140000704700BF80B483B000AF78600B467B802C
:101410007B681B8A9BB223F020039AB27B681A82F6
:101420007B681B8A9AB27B8813439AB27B681A82C4
:1014300000BF0C37BD4680BC704700BF80B483B08E
:1014400000AF78600B46FB70FB78002B08D07B6800
:101450001B8A9BB243F480439AB27B681A8207E0EE
:101460007B681B8A9BB223F480439AB27B681A8202
:1014700000BF0C37BD4680BC704700BF80B483B04E
:1014800000AF78600B467B807B88C3F308039AB279
:101490007B689A8000BF0C37BD4680BC704700BF98
:1014A00080B483B000AF78607B689B889BB2C3F345
:1014B00008039BB218460C37BD4680BC704700BF7E
:1014C00080B483B000AF78607B689B899BB243F0A7
:1014D00001039AB27B689A8100BF0C37BD4680BC7D
:1014E000704700BF80B483B000AF78600B46FB70DC
:1014F0007B681B8B9BB2DBB29AB27B681A837B68DA
:101500001B8B9AB2FB789BB21B029BB213439AB21D
:101510007B681A8300BF0C37BD4680BC704700BF94
:1015200080B483B000AF78600B46FB707B681B8B88
:101530009BB223F0FF039AB27B681A837B681B8BF4
:101540009AB2FB789BB213439AB27B681A8300BFAE
:101550000C37BD4680BC704780B483B000AF786064
:101560000B46FB70FB78002B08D07B689B8A9BB2F4
:1015700043F020039AB27B689A8207E07B689B8ADB
:101580009BB223F020039AB27B689A8200BF0C378B
:10159000BD4680BC704700BF80B483B000AF7860A8
:1015A0000B46FB70FB78002B08D07B689B8A9BB2B4
:1015B00043F010039AB27B689A8207E07B689B8AAB
:1015C0009BB223F010039AB27B689A8200BF0C375B
:1015D000BD4680BC704700BF80B483B000AF786068
:1015E0000B46FB70FB78002B08D07B689B8A9BB274
:1015F00043F008039AB27B689A8207E07B689B8A73
:101600009BB223F008039AB27B689A8200BF0C3722
:10161000BD4680BC704700BF80B483B000AF786027
:101620000B46FB70FB78002B0AD07B689B899BB232
:101630006FEA43436FEA53439AB27B689A8107E0AB
:101640007B689B899BB2C3F30E039AB27B689A8135
:1016500000BF0C37BD4680BC704700BF80B483B06C
:1016600000AF78600B46FB70FB78002B08D07B68DE
:101670009B8A9BB243F400639AB27B689A8207E02C
:101680007B689B8A9BB223F400639AB27B689A8240
:1016900000BF0C37BD4680BC704700BF80B483B02C
:1016A00000AF78600B467B807B689B8A9BB223F0FF
:1016B00004039AB27B689A827B689B8A9AB27B8881
:1016C00013439AB27B689A8200BF0C37BD4680BC38
:1016D000704700BF80B483B000AF78600B46FB70EA
:1016E000FB78002B08D07B689B8A9BB243F00203F7
:1016F0009AB27B689A8207E07B689B8A9BB223F050
:1017000002039AB27B689A8200BF0C37BD4680BC48
:10171000704700BF80B485B000AF78600B467B8017
:101720000023FB737B681B889AB27B8813409BB2B3
:10173000002B02D00123FB7301E00023FB73FB7B32
:1017400018461437BD4680BC704700BF80B483B0D4
:1017500000AF78600B467B807B88DB439AB27B6866
:101760001A8000BF0C37BD4680BC704780B487B07C
:1017700000AF78600B467B800023FB6000237B6119
:101780000023BB600023FB747B88DBB25B09DBB208
:10179000BB607B8803F01F037B6101227B6902FA37
:1017A00003F37B61BB68012B07D17B689B899BB2EC
:1017B0001A467B6913407B6111E0BB68022B07D19D
:1017C0007B681B8A9BB21A467B6913407B6106E0EB
:1017D0007B689B8A9BB21A467B6913407B617B883E
:1017E0001B0A9BB2FB600122FB6802FA03F3FB6059
:1017F0007B681B889BB21A46FB681340FB607B69C1
:10180000002B05D0FB68002B02D00123FB7401E004
:101810000023FB74FB7C18461C37BD4680BC704718
:1018200080B485B000AF78600B467B800023FB81DD
:101830000023BB817B881B0AFB81FB89012202FA02
:1018400003F3BB81BB89DB439AB27B681A8000BF7C
:101850001437BD4680BC704780B483B000AF0346E8
:10186000FB71084997F907305B09FA7902F01F020A
:10187000012000FA02F241F8232000BF0C37BD46D8
:1018800080BC704700E100E080B483B000AF034645
:101890003960FB7197F90730002B0BDA0D49FB79A2
:1018A00003F00F03043B3A68D2B21201D2B20B44E8
:1018B0001A7609E0084997F907303A68D2B212015E
:1018C000D2B20B4483F8002300BF0C37BD4680BC66
:1018D000704700BF00ED00E000E100E080B588B097
:1018E00000AFF860084611461A4603467B810B4656
:1018F0003B811346FB80FB68484A934205D1012196
:101900004FF4006001F008F93EE0FB68B3F1804F4E
:1019100004D10121012001F01DF935E0FB68404AA6
:10192000934204D10121022001F014F92CE0FB685C
:101930003C4A934204D10121042001F00BF923E039
:10194000FB68394A934204D10121082001F002F9D1
:101950001AE0FB68354A934204D10121102001F0BE
:10196000F9F811E0FB68324A934204D101212020AA
:1019700001F0F0F808E0FB682E4A934204D10121FF
:101980004FF4005001F0C8F8FB68B3F1804F02D16A
:101990001C23FB6113E0FB68214A934202D11D2303
:1019A000FB610CE0FB681F4A934202D11E23FB61DE
:1019B00005E0FB681C4A934201D13223FB61FB69BD
:1019C0005BB23A8D11461846FFF75EFFFB695BB2CA
:1019D0001846FFF741FF7B893B823B897B82FB886E
:1019E000BB820023FB8207F110031946F86801F05F
:1019F00045FF0121F86803F00FF90021F86802F0B3
:101A000093FD0121F86803F03DFB01220121F868F4
:101A100002F042FB00BF2037BD4680BD002C0140D4
:101A20000004004000080040000C0040001000408E
:101A3000001400400034014080B483B000AF03467E
:101A4000FB71084997F907305B09FA7902F01F0228
:101A5000012000FA02F241F8232000BF0C37BD46F6
:101A600080BC704700E100E080B483B000AF034663
:101A7000FB71094997F907305B09FA7902F01F02F7
:101A8000012000FA02F2203341F8232000BF0C3776
:101A9000BD4680BC704700BF00E100E080B483B069
:101AA00000AF03463960FB7197F90730002B0BDA62
:101AB0000D49FB7903F00F03043B3A68D2B21201DF
:101AC000D2B20B441A7609E0084997F907303A6810
:101AD000D2B21201D2B20B4483F8002300BF0C37FC
:101AE000BD4680BC704700BF00ED00E000E100E0B3
:101AF00080B500AF4FF4007001F004FC01F026F94E
:101B000000F002F800BF80BD80B500AF0A4BDA7864
:101B10000A4B1A70084B1A79084B5A70064B5A79BF
:101B2000064B9A700D20FFF79FFF0321044800F039
:101B300027F800BF80BD00BF840A00208C0A002067
:101B40003000024080B500AF0A4B1A780A4B1A7079
:101B5000084B5A78084B5A70064B9A78064B9A7085
:101B60000D20FFF769FF0321044800F009F800BFCA
:101B700080BD00BF840A00208C0A00203000024093
:101B800080B582B000AF786039600021786801F0DC
:101B9000FBFA7B683A685A600121786801F0F4FA30
:101BA00000BF0837BD4680BD80B590B000AFF8607B
:101BB000B9607A603B600121012000F08FFFF86876
:101BC00001F0BEF9BB683B617B687B613B68BB6130
:101BD000BB6CFB61FB6CBB623B6DFB6280237B6279
:101BE00000233B627B6D3B634FF400537B63002318
:101BF000BB6307F110031946F86801F05DFA012292
:101C000002212C4801F0DCFAFB682B4A934202D1F6
:101C10000C23FB633DE0FB68284A934202D10C236E
:101C2000FB6336E0FB68234A934202D10D23FB633A
:101C30002FE0FB68224A934202D10E23FB6328E087
:101C4000FB68204A934202D10F23FB6321E0FB682B
:101C50001D4A934202D11023FB631AE0FB681B4A22
:101C6000934202D11123FB6313E0FB68184A9342AD
:101C700002D13823FB630CE0FB68164A934202D181
:101C80003923FB6305E0FB68134A934201D13A23F1
:101C9000FB63FB6B5BB2BA6D11461846FFF7FEFEA5
:101CA000FB6B5BB21846FFF7C7FE00BF4037BD466F
:101CB00080BD00BF30000240080002401C0002400E
:101CC00044000240580002406C0002408000024084
:101CD000080402401C0402403004024080B483B077
:101CE00000AF0346FB71084997F907305B09FA79A1
:101CF00002F01F02012000FA02F241F8232000BF87
:101D00000C37BD4680BC704700E100E080B483B072
:101D100000AF03463960FB7197F90730002B0BDAEF
:101D20000D49FB7903F00F03043B3A68D2B212016C
:101D3000D2B20B441A7609E0084997F907303A689D
:101D4000D2B21201D2B20B4483F8002300BF0C3789
:101D5000BD4680BC704700BF00ED00E000E100E040
:101D600080B582B000AF40F225511648FFF7FEFC67
:101D70000346002B1CD01348FFF792FB0346FB7170
:101D8000FB79242B09D14FF4807200210E4806F014
:101D900095F90E4800F0DEF80AE0FB79212B03D11B
:101DA0000B4800F0D7F803E0FB79184600F06CF818
:101DB00040F225510348FFF733FD00BF0837BD4609
:101DC00080BD00BF00380140940A0020B0CC00085C
:101DD000C0CC000880B588B000AF786039607B68FF
:101DE000274A93420AD1012144F2010000F094FEF7
:101DF00000214FF4804000F0CBFE08E07B68214AD0
:101E0000934204D101214FF4003000F085FE3B687D
:101E1000FB6000233B8200237B820023BB820023E4
:101E20003B830C23FB8207F10C0319461448FFF790
:101E3000EDF801217868FFF701FA012240F22551FF
:101E40007868FFF71BFA7B680D4A934202D125237D
:101E5000FB6105E07B680B4A934201D12623FB61BD
:101E6000FB695BB200211846FFF750FFFB695BB2CC
:101E70001846FFF733FF00BF2037BD4680BD00BFC7
:101E8000003801400044004080B485B000AF0346F4
:101E9000FB710F4B1B88FB81FB890133FB81FB89A5
:101EA000B3F5807F01D10023FB810A4B1B88FA899F
:101EB0009A4208D0064B1B881946074AFB795354AF
:101EC000034AFB89138000BF1437BD4680BC7047AE
:101ED000900A0020920A0020940A002080B400AFEB
:101EE000054B00221A80044B1A88044B1A8000BF4D
:101EF000BD4680BC704700BF900A0020920A0020B7
:101F000080B483B000AF104B1B88FB800F4B1B8845
:101F1000FA889A4201D1FF2310E0FB880C4AD35C77
:101F20007B71FB880133FB80FB88B3F5807F01D197
:101F30000023FB80044AFB8813807B7918460C370A
:101F4000BD4680BC704700BF920A0020900A002066
:101F5000940A002080B582B000AF786010E000BF26
:101F600080210B48FFF7D6FB0346002BF8D07B6897
:101F70005A1C7A601B789BB219460548FFF77EFA17
:101F80007B681B78002BEAD100BF0837BD4680BDB7
:101F90000038014080B582B000AF78607B682F4A7E
:101FA000934208D10121042000F0F2FD0021042019
:101FB00000F0EEFD4EE07B68294A934208D10121F2
:101FC000082000F0E5FD0021082000F0E1FD41E0DF
:101FD0007B68244A934208D10121102000F0D8FDEB
:101FE0000021102000F0D4FD34E07B681E4A9342AB
:101FF00008D10121202000F0CBFD0021202000F09D
:10200000C7FD27E07B68194A934208D1012140208F
:1020100000F0BEFD0021402000F0BAFD1AE07B6810
:10202000134A934208D10121802000F0B1FD002124
:10203000802000F0ADFD0DE07B680E4A934209D18F
:1020400001214FF4807000F0A3FD00214FF4807057
:1020500000F09EFD00BF0837BD4680BD000801406E
:10206000000C014000100140001401400018014024
:10207000001C01400020014080B500AF012101207B
:1020800000F086FD0021012000F082FD00BF80BD30
:1020900080B489B000AF786039600023FB61002311
:1020A0003B610023BB610023FB6000237B610023B5
:1020B000BB603B68DB7803F00F03FB613B68DB78B8
:1020C00003F01003002B05D03B689B781A46FB6990
:1020D0001343FB613B681B88DBB2002B44D07B6859
:1020E0001B687B610023BB6138E00122BB6902FAF7
:1020F00003F3FB603B681B881A46FB6813403B6197
:102100003A69FB689A4226D1BB699B00FB600F22AB
:10211000FB6802FA03F3BB60BB68DB437A691340D8
:102120007B61FA69FB6802FA03F37A6913437B6106
:102130003B68DB78282B05D10122BB699A407B687C
:102140005A6108E03B68DB78482B04D10122BB6967
:102150009A407B681A61BB690133BB61BB69072B7D
:10216000C3D97B687A691A603B681B88FF2B46D904
:102170007B685B687B610023BB613AE0BB69083325
:10218000012202FA03F3FB603B681B881A46FB68D6
:1021900013403B613A69FB689A4227D1BB699B00B7
:1021A000FB600F22FB6802FA03F3BB60BB68DB43F2
:1021B0007A6913407B61FA69FB6802FA03F37A6972
:1021C00013437B613B68DB78282B05D1BB6908335F
:1021D00001229A407B685A613B68DB78482B05D125
:1021E000BB69083301229A407B681A61BB690133DD
:1021F000BB61BB69072BC1D97B687A695A6000BF94
:102200002437BD4680BC704780B483B000AF78608F
:102210007B684FF6FF721A807B6802229A707B6897
:102220000422DA7000BF0C37BD4680BC704700BF87
:1022300080B485B000AF78600B467B800023FB73D1
:102240007B689A687B881340002B02D00123FB73C4
:1022500001E00023FB73FB7B18461437BD4680BCAE
:10226000704700BF80B483B000AF78607B689B6824
:102270009BB218460C37BD4680BC704780B485B011
:1022800000AF78600B467B800023FB737B68DA68C5
:102290007B881340002B02D00123FB7301E0002355
:1022A000FB73FB7B18461437BD4680BC704700BFEC
:1022B00080B483B000AF78607B68DB689BB218465F
:1022C0000C37BD4680BC704780B483B000AF7860E7
:1022D0000B467B807A887B681A6100BF0C37BD464D
:1022E00080BC704780B483B000AF78600B467B80C1
:1022F0007A887B685A6100BF0C37BD4680BC704746
:1023000080B483B000AF78600B467B8013467B704F
:102310007B78002B03D07A887B681A6102E07A8888
:102320007B685A6100BF0C37BD4680BC704700BF58
:1023300080B483B000AF78600B467B807A887B687E
:10234000DA6000BF0C37BD4680BC704780B485B0F2
:1023500000AF78600B467B804FF48033FB607B8856
:10236000FA681343FB607B68FA689A617A887B6835
:102370009A617B68FA689A617B689B69FB607B68FD
:102380009B69FB6000BF1437BD4680BC704700BF2F
:1023900080B485B000AF03460A46FB711346BB719B
:1023A0000023FB600C4B1B68FB60FA684FF68073E0
:1023B0001340FB60FB791B01FA681343FB60BB7998
:1023C000FA681343FB60044AFB68136000BF1437CC
:1023D000BD4680BC704700BF0000014080B483B0A0
:1023E00000AF0346FB71044AFB79136000BF0C3752
:1023F000BD4680BC704700BF1C00204280B487B03F
:1024000000AF78600B46FB7000233B610023FB604C
:1024100000237B610023BB607B68002B03DA2E4B1B
:10242000DB697B6102E02C4B5B687B617B681B0C8A
:1024300003F00F03BB607B689BB23B617B6803F4D6
:102440004013B3F5401F0AD17B6923F070637B61B1
:10245000214A214B5B6823F07063536021E07B6865
:1024600003F48013002B0ED00322BB6802FA03F39F
:10247000FB60FB68DB437A6913407B617B6943F057
:1024800070637B610DE07B685B0D1B013A6902FAAA
:1024900003F3DB437A6913407B617B6943F070632C
:1024A0007B61FB78002B08D07B685B0D1B013A69D0
:1024B00002FA03F37A6913437B617B68002B03DA2A
:1024C000054A7B69D36102E0034A7B69536000BF20
:1024D0001C37BD4680BC70470000014090B484B0FA
:1024E00000AF03460A46FB711346BB710023FB6035
:1024F000BB7903F003039B000F2202FA03F3FB6096
:102500001649BB799B08DBB21846144ABB799B0875
:10251000DBB2023352F82320FB68DB431A40831CF2
:1025200041F823200D48BB799B08DBB21C460B4ABF
:10253000BB799B08DBB2023352F82320F979BB79CF
:1025400003F003039B0001FA03F31A43A31C40F8B2
:10255000232000BF1037BD4690BC704700000140EB
:1025600080B483B000AF7860034A7B68136000BF1B
:102570000C37BD4680BC7047DC00204280B400AF01
:10258000134A134B1B6843F0010313601049104BAF
:102590005A68104B13404B600D4A0D4B1B6823F0DB
:1025A000847323F480331360094A094B1B6823F4B6
:1025B00080231360064A064B5B6823F4FE035360D6
:1025C000034B4FF41F029A6000BFBD4680BC7047AA
:1025D000001002400000FFF880B483B000AF7860C4
:1025E000134A134B1B6823F480331360104A104BBB
:1025F0001B6823F4802313607B68B3F5803F03D00E
:10260000B3F5802F07D00DE0094A094B1B6843F44E
:102610008033136006E0064A054B1B6843F4A02391
:10262000136000BF00BF0C37BD4680BC704700BFC1
:102630000010024080B582B000AF00233B60002351
:10264000FB710023BB71312000F00EFB0346BB7110
:102650003B6801333B603B68B3F5A06F02D0BB79A8
:10266000002BF0D0312000F0FFFA0346002B02D0FF
:102670000123FB7101E00023FB71FB791846083749
:10268000BD4680BD80B485B000AF0346FB7100231A
:10269000FB600A4B1B68FB60FB6823F0F803FB60E0
:1026A000FB79DB00FA681343FB60044AFB681360A4
:1026B00000BF1437BD4680BC704700BF0010024009
:1026C00080B483B000AF0346FB71044AFB7913600A
:1026D00000BF0C37BD4680BC704700BF00004242BF
:1026E00080B485B000AF786039600023FB600A4B8E
:1026F0005B68FB60FB6823F47C13FB607A683B68D3
:102700001343FA681343FB60034AFB68536000BF3E
:102710001437BD4680BC70470010024080B483B0BF
:1027200000AF0346FB71044AFB79136000BF0C370E
:10273000BD4680BC704700BF6000424280B485B097
:1027400000AF78600023FB60094B5B68FB60FB68AF
:1027500023F00303FB60FA687B681343FB60044AC1
:10276000FB68536000BF1437BD4680BC704700BF94
:102770000010024080B400AF044B5B68DBB203F092
:102780000C03DBB21846BD4680BC70470010024007
:1027900080B485B000AF78600023FB60094B5B68B4
:1027A000FB60FB6823F0F003FB60FA687B6813436F
:1027B000FB60044AFB68536000BF1437BD4680BC11
:1027C000704700BF0010024080B485B000AF786051
:1027D0000023FB60094B5B68FB60FB6823F4E0634C
:1027E000FB60FA687B681343FB60044AFB68536034
:1027F00000BF1437BD4680BC704700BF00100240C8
:1028000080B485B000AF78600023FB60094B5B6843
:10281000FB60FB6823F46053FB607B68DB00FA68B5
:102820001343FB60034AFB68536000BF1437BD4687
:1028300080BC70470010024080B483B000AF0346F4
:102840000A46FB711346BB71BB79002B08D00C49BB
:102850000B4B1B78DAB2FB791343DBB20B7009E048
:102860000749074B1B78DAB2FB79DB43DBB2134035
:10287000DBB20B7000BF0C37BD4680BC704700BF99
:102880000910024080B483B000AF7860034A7B68CF
:10289000136000BF0C37BD4680BC7047D800424271
:1028A00080B485B000AF78600023FB60094B5B68A3
:1028B000FB60FB6823F44043FB60FA687B681343CA
:1028C000FB60044AFB68536000BF1437BD4680BC00
:1028D000704700BF0010024080B483B000AF0346D1
:1028E000FB710C4B00221A700A4B00221A70FB7904
:1028F000012B02D0042B04D007E0064B01221A70F2
:1029000003E0044B05221A7000BF00BF0C37BD4620
:1029100080BC70472010024080B483B000AF0346F3
:10292000FB71044AFB79136000BF0C37BD4680BCC5
:10293000704700BF8004424280B483B000AF78602B
:102940000549054B1A6A7B6813430B6200BF0C37BD
:10295000BD4680BC704700BF0010024080B483B009
:1029600000AF0346FB71044AFB79136000BF0C37CC
:10297000BD4680BC704700BF3C04424280B487B073
:1029800000AF786000237B6100233B610023FB6084
:102990000023BB604C4B5B6803F00C037B617B69DD
:1029A000042B07D0082B09D0002B33D17B68474A72
:1029B0001A6033E07B68454A1A602FE0424B5B683F
:1029C00003F470133B61404B5B6803F48033FB609E
:1029D0003B699B0C02333B61FB68002B06D13B69D2
:1029E0003B4A02FB03F27B681A6017E0364B5B68D8
:1029F00003F40033002B06D03B69354A02FB03F297
:102A00007B681A600AE03B69304A02FB03F27B688C
:102A10001A6003E07B682D4A1A6000BF2A4B5B688E
:102A200003F0F0037B617B691B097B61294A7B69A9
:102A300013441B78DBB2BB607B681A68BB68DA4062
:102A40007B685A60204B5B6803F4E0637B617B69C1
:102A50001B0A7B611F4A7B6913441B78DBB2BB6096
:102A60007B685A68BB68DA407B689A60164B5B6883
:102A700003F460537B617B69DB0A7B61154A7B69E8
:102A800013441B78DBB2BB607B685A68BB68DA40D2
:102A90007B68DA600C4B5B6803F440437B617B69C5
:102AA0009B0B7B610C4A7B6913441B78DBB2BB60D8
:102AB0007B68DA68BB68B2FBF3F27B681A6100BF1F
:102AC0001C37BD4680BC70470010024000127A00DF
:102AD00000093D00000000201000002080B483B0F9
:102AE00000AF78600B46FB70FB78002B06D00949DD
:102AF000084B5A697B6813434B6106E00549054B57
:102B00005A697B68DB4313404B6100BF0C37BD46FD
:102B100080BC70470010024080B483B000AF786082
:102B20000B46FB70FB78002B06D00949084B9A69CD
:102B30007B6813438B6106E00549054B9A697B6806
:102B4000DB4313408B6100BF0C37BD4680BC704730
:102B50000010024080B483B000AF78600B46FB7079
:102B6000FB78002B06D00949084BDA697B681343D0
:102B7000CB6106E00549054BDA697B68DB4313400E
:102B8000CB6100BF0C37BD4680BC704700100240CF
:102B900080B483B000AF78600B46FB70FB78002BED
:102BA00006D00949084BDA687B681343CB6006E01E
:102BB0000549054BDA687B68DB431340CB6000BFF7
:102BC0000C37BD4680BC70470010024080B483B013
:102BD00000AF78600B46FB70FB78002B06D00949EC
:102BE000084B1A697B6813430B6106E00549054BE6
:102BF0001A697B68DB4313400B6100BF0C37BD468D
:102C000080BC70470010024080B483B000AF034620
:102C1000FB71044AFB79136000BF0C37BD4680BCD2
:102C2000704700BF4004424280B483B000AF034607
:102C3000FB71044AFB79136000BF0C37BD4680BCB2
:102C4000704700BF4C00424280B483B000AF0346DF
:102C5000FB71044AFB79137000BF0C37BD4680BC82
:102C6000704700BF0710024080B487B000AF034632
:102C7000FB710023FB6000237B610023FB74FB7965
:102C80005B09DBB2FB60FB68012B03D1124B1B68B5
:102C90007B6109E0FB68022B03D10F4B1B6A7B6150
:102CA00002E00D4B5B6A7B61FB7903F01F03FB6065
:102CB0007A69FB6822FA03F303F00103002B02D0C8
:102CC0000123FB7401E00023FB74FB7C18461C37D6
:102CD000BD4680BC704700BF0010024080B400AF0A
:102CE000044A044B5B6A43F08073536200BFBD46E5
:102CF00080BC70470010024080B485B000AF03462E
:102D0000FB710023FB73084B9A68FB791340002B7F
:102D100002D00123FB7301E00023FB73FB7B184609
:102D20001437BD4680BC70470010024080B483B0A9
:102D300000AF0346FB71044AFB79137000BF0C37E8
:102D4000BD4680BC704700BF0A10024080B500AF8E
:102D500010210448FFF7C6FA10210248FFF7B4FA21
:102D600000BF80BD0008014080B58AB000AFF860A8
:102D7000084611461A4603467B810B463B811346A3
:102D8000FB80FB682F4A934205D101214FF480500C
:102D9000FFF7C2FE12E0FB682B4A934205D10121E6
:102DA0004FF48040FFF7B8FE08E0FB68274A9342E3
:102DB00004D101214FF40040FFF7AEFE7B89FB8276
:102DC0003B893B83FB883B843B8E7B84BB8E032B00
:102DD0001ED801A252F823F0E92D0008F32D0008B7
:102DE000FD2D0008072E000800237B830023BB83F2
:102DF0000FE000237B830123BB830AE002237B8354
:102E00000023BB8305E002237B830123BB8300E017
:102E100000BF0023BB820023FB830723BB8407F191
:102E200014031946F86803F0F9FA0121F86803F071
:102E3000FDFC0121F86803F029FC00BF2837BD46DE
:102E400080BD00BF0030014000380040003C004021
:102E500080B500AF0C21002000F01AF80246094BA3
:102E60001A600C21002000F013F80246064B1A608D
:102E70000C21002000F00CF80246044B1A6000BF41
:102E800080BD00BF9C0B0020980B0020940B0020FD
:102E900080B584B000AF03460A46FB711346BB7190
:102EA000062005F01DFB0346FB60FB68FA791A70EB
:102EB000FB68BA791A71FB6800225A71FB6810220C
:102EC000DA70FB6820229A70FB68BF225A70FB6898
:102ED00018461037BD4680BD80B485B000AF78601D
:102EE0000B46FB701346BB707B68FA781A707B68E0
:102EF0001A787B681B791343DAB27B689B7813439B
:102F0000DAB27B68DB781343DAB27B685B79134310
:102F1000FB73BB78402B04D1FB7B43F04003DBB257
:102F200008E0BB78BF2B04D1FB7B23F04003DBB26E
:102F300000E0002318461437BD4680BC704700BF30
:102F400080B483B000AF78607B681A684FF6FE7378
:102F500013407A6813607B6800221A607B68002245
:102F60005A607B6800229A607B680022DA607B6886
:102F7000434A934206D1434A424B5B6843F00F03F6
:102F8000536077E07B68404A934206D13D4A3D4B0F
:102F90005B6843F0F00353606CE07B683B4A93420C
:102FA00006D1384A374B5B6843F47063536061E085
:102FB0007B68374A934206D1324A324B5B6843F40E
:102FC0007043536056E07B68324A934206D12D4AE3
:102FD0002C4B5B6843F4702353604BE07B682E4AB4
:102FE000934206D1274A274B5B6843F47003536032
:102FF00040E07B68294A934206D1224A214B5B6814
:1030000043F07063536035E07B68254A934206D1F4
:10301000244A244B5B6843F00F0353602AE07B682B
:10302000214A934206D11F4A1E4B5B6843F0F003CE
:1030300053601FE07B681D4A934206D1194A194B21
:103040005B6843F47063536014E07B68184A9342F2
:1030500006D1144A134B5B6843F47043536009E094
:103060007B68144A934205D10E4A0E4B5B6843F4C9
:103070007023536000BF0C37BD4680BC704700BF53
:1030800008000240000002401C00024030000240E4
:1030900044000240580002406C00024080000240A0
:1030A00008040240000402401C04024030040240B4
:1030B000440402405804024080B485B000AF7860F8
:1030C00039600023FB607B681B68FB60FB6823F4AE
:1030D000FF4323F07003FB603B689A683B681B6A00
:1030E0001A433B681B691A433B685B691A433B6898
:1030F0009B691A433B68DB691A433B685B6A1A4366
:103100003B689B6A1343FA681343FB607B68FA6869
:103110001A603B68DA687B685A603B681A687B68AB
:103120009A603B685A687B68DA6000BF1437BD4616
:1031300080BC704780B483B000AF78607B680022A9
:103140001A607B6800225A607B6800229A607B6864
:103150000022DA607B6800221A617B6800225A61D3
:103160007B6800229A617B680022DA617B6800221A
:103170001A627B6800225A627B6800229A6200BF52
:103180000C37BD4680BC704780B483B000AF786018
:103190000B46FB70FB78002B06D07B681B6843F066
:1031A00001027B681A6006E07B681A684FF6FE73BE
:1031B00013407A68136000BF0C37BD4680BC70476F
:1031C00080B485B000AFF860B9601346FB71FB793D
:1031D000002B06D0FB681A68BB681A43FB681A60AC
:1031E00006E0FB681A68BB68DB431A40FB681A609C
:1031F00000BF1437BD4680BC704700BF80B483B0A9
:1032000000AF78600B467B807A887B685A6000BF8D
:103210000C37BD4680BC704780B483B000AF786087
:103220007B685B689BB218460C37BD4680BC704714
:1032300080B485B000AF78600023FB730023BB60CF
:103240007B6803F08053002B03D00B4B1B68BB60E3
:1032500002E00A4B1B68BB60BA687B681340002B16
:1032600002D00123FB7301E00023FB73FB7B1846B4
:103270001437BD4680BC7047000402400000024085
:1032800080B483B000AF78607B6803F08053002B7C
:1032900003D0064A7B68536002E0054A7B685360AE
:1032A00000BF0C37BD4680BC704700BF0004024021
:1032B0000000024080B485B000AF78600023FB734B
:1032C0000023BB607B6803F08053002B03D00B4BC3
:1032D0001B68BB6002E00A4B1B68BB60BA687B6876
:1032E0001340002B02D00123FB7301E00023FB738A
:1032F000FB7B18461437BD4680BC70470004024073
:103300000000024080B483B000AF78607B6803F0B7
:103310008053002B03D0064A7B68536002E0054AC5
:103320007B68536000BF0C37BD4680BC704700BF50
:10333000000402400000024080B500AF154A154B62
:103340001B6843F0010313601249124B5A68124B79
:1033500013404B600F4A0F4B1B6823F0847323F418
:10336000803313600B4A0B4B1B6823F480231360DC
:10337000084A084B5B6823F4FE035360054B4FF487
:103380001F029A6000F078F8044B4FF000629A60D8
:1033900000BF80BD001002400000FFF800ED00E01B
:1033A00080B485B000AF0023FB600023BB60002326
:1033B0007B602C4B5B6803F00C03FB60FB68042B09
:1033C00007D0082B09D0002B33D1274B274A1A608E
:1033D00033E0254B254A1A602FE0224B5B6803F44B
:1033E0007013BB601F4B5B6803F480337B60BB686A
:1033F0009B0C0233BB607B68002B06D1BB681C4A68
:1034000002FB03F3184A136017E0164B5B6803F4E2
:103410000033002B06D0BB68154A02FB03F3124AA7
:1034200013600AE0BB68114A02FB03F30E4A136003
:1034300003E00D4B0D4A1A6000BF0A4B5B6803F0B6
:10344000F0031B090B4AD35CDBB2FB60064B1A6826
:10345000FB6822FA03F3044A136000BF1437BD4629
:1034600080BC7047001002401400002000127A0057
:1034700000093D001800002080B500AF00F002F800
:1034800000BF80BD80B483B000AF00237B60002309
:103490003B60394A384B1B6843F480331360364B2A
:1034A0001B6803F400333B607B6801337B603B683F
:1034B000002B03D17B68B3F5A06FF0D12E4B1B68B6
:1034C00003F40033002B02D001233B6001E0002312
:1034D0003B603B68012B49D1284A284B1B6843F0CD
:1034E00010031360254A254B1B6823F00703136064
:1034F000224A224B1B6843F0020313601E4A1E4BF4
:103500005B6853601C4A1C4B5B6853601A4A1A4B39
:103510005B685360184A184B5B6823F47C13536054
:10352000154A154B5B6843F4E8135360124A124B7B
:103530001B6843F08073136000BF0F4B1B6803F0E0
:103540000073002BF9D00C4A0B4B5B6823F003038C
:103550005360094A084B5B6843F00203536000BFA5
:10356000054B5B6803F00C03082BF9D100BF0C3747
:10357000BD4680BC704700BF0010024000200240E2
:1035800080B586B000AFF8607A603B600B467B8107
:10359000FB68284A934204D101210420FFF7BCFABA
:1035A00035E0FB68244A934204D101210820FFF74B
:1035B000B3FA2CE0FB68214A934204D10121102088
:1035C000FFF7AAFA23E0FB681D4A934204D10121C8
:1035D0002020FFF7A1FA1AE0FB681A4A934204D1AF
:1035E00001214020FFF798FA11E0FB68164A934248
:1035F00004D101218020FFF78FFA08E0FB68134A0D
:10360000934204D101214FF48070FFF785FA7B8942
:10361000BB827B68DBB2BB753B68DBB2FB7507F135
:1036200014031946F868FEF733FD00BF1837BD468E
:1036300080BD00BF00080140000C014000100140A7
:103640000014014000180140001C0140002001400E
:1036500080B582B000AF78607B68784A93420AD127
:1036600001214FF40060FFF793FA00214FF400604E
:10367000FFF78EFADEE07B68B3F1804F08D10121BD
:103680000120FFF7A3FA00210120FFF79FFAD1E004
:103690007B686B4A934208D101210220FFF796FA1A
:1036A00000210220FFF792FAC4E07B68654A93424A
:1036B00008D101210420FFF789FA00210420FFF737
:1036C00085FAB7E07B68604A934208D1012108205F
:1036D000FFF77CFA00210820FFF778FAAAE07B6860
:1036E0005A4A934208D101211020FFF76FFA0021B6
:1036F0001020FFF76BFA9DE07B68554A934208D192
:1037000001212020FFF762FA00212020FFF75EFA56
:1037100090E07B684F4A93420AD101214FF4005058
:10372000FFF736FA00214FF40050FFF731FA81E03D
:103730007B68494A93420AD101214FF40020FFF7E8
:1037400027FA00214FF40020FFF722FA72E07B688D
:10375000424A93420AD101214FF48010FFF718FA30
:1037600000214FF48010FFF713FA63E07B683C4AB6
:1037700093420AD101214FF40010FFF709FA00210A
:103780004FF40010FFF704FA54E07B68354A934287
:1037900008D101214020FFF719FA00214020FFF74E
:1037A00015FA47E07B68304A934208D10121802016
:1037B000FFF70CFA00218020FFF708FA3AE07B6857
:1037C0002A4A93420AD101214FF48070FFF7FEF993
:1037D00000214FF48070FFF7F9F92BE07B68244A51
:1037E00093420AD101214FF48030FFF7D1F9002133
:1037F0004FF48030FFF7CCF91CE07B681D4A934200
:103800000AD101214FF40030FFF7C2F900214FF433
:103810000030FFF7BDF90DE07B68174A934209D1EC
:1038200001214FF48020FFF7B3F900214FF48020ED
:10383000FFF7AEF900BF0837BD4680BD002C014040
:103840000004004000080040000C00400010004050
:103850000014004000340140004C01400050014081
:103860000054014000180040001C004000200040AF
:1038700000400140004401400048014080B485B050
:1038800000AF786039600023FB817B681B88FB8177
:103890007B682E4A934213D07B682D4A93420FD007
:1038A0007B68B3F1804F0BD07B682A4A934207D0E4
:1038B0007B68294A934203D07B68284A934208D107
:1038C000FB8923F07003FB813B685A88FB89134313
:1038D000FB817B68224A93420CD07B68214A934249
:1038E00008D0FB8923F44073FB813B68DA88FB89AD
:1038F0001343FB817B68FA891A803B689A887B684E
:103900009A853B681A887B681A857B680F4A9342C0
:103910000FD07B680E4A93420BD07B68124A9342C9
:1039200007D07B68114A934203D07B68104A9342C8
:1039300004D13B681B7A9AB27B681A867B680122A5
:103940009A8200BF1437BD4680BC7047002C0140EE
:10395000003401400004004000080040000C00401A
:1039600000100040001400400040014000440140AD
:103970000048014080B485B000AF78603960002312
:103980007B810023FB810023BB817B681B8C9BB266
:1039900023F001039AB27B681A847B681B8CFB813D
:1039A0007B689B88BB817B681B8B7B817B8923F039
:1039B00070037B817B8923F003037B813B681A883A
:1039C0007B8913437B81FB8923F00203FB813B68E6
:1039D0001A89FB891343FB813B685A88FB8913438F
:1039E000FB817B68244A93420FD07B68234A934231
:1039F0000BD07B68224A934207D07B68214A9342CE
:103A000003D07B68204A934223D1FB8923F008032B
:103A1000FB813B685A89FB891343FB81FB8923F0B7
:103A20000403FB813B689A88FB891343FB81BB89B4
:103A300023F48073BB81BB8923F40073BB813B6893
:103A40009A89BB891343BB813B68DA89BB891343DD
:103A5000BB817B68BA899A807B687A891A833B68C4
:103A6000DA887B689A867B68FA891A8400BF1437E3
:103A7000BD4680BC704700BF002C014000340140AF
:103A800000400140004401400048014080B485B03E
:103A900000AF7860396000237B810023FB81002325
:103AA000BB817B681B8C9BB223F010039AB27B68AE
:103AB0001A847B681B8CFB817B689B88BB817B683D
:103AC0001B8B7B817B8923F4E0437B817B8923F4FF
:103AD00040737B813B681B881B029AB27B8913432E
:103AE0007B81FB8923F02003FB813B681B891B0141
:103AF0009AB2FB891343FB813B685B881B019AB236
:103B0000FB891343FB817B68224A934203D07B6885
:103B1000214A93422BD1FB8923F08003FB813B6830
:103B20005B891B019AB2FB891343FB81FB8923F05C
:103B30004003FB813B689B881B019AB2FB891343BE
:103B4000FB81BB8923F48063BB81BB8923F40063C1
:103B5000BB813B689B899B009AB2BB891343BB81A5
:103B60003B68DB899B009AB2BB891343BB817B68AE
:103B7000BA899A807B687A891A833B68DA887B687D
:103B80001A877B68FA891A8400BF1437BD4680BC47
:103B9000704700BF002C01400034014080B485B064
:103BA00000AF7860396000237B810023FB81002314
:103BB000BB817B681B8C9BB223F480739AB27B68B9
:103BC0001A847B681B8CFB817B689B88BB817B682C
:103BD0009B8B7B817B8923F070037B817B8923F026
:103BE00003037B813B681A887B8913437B81FB89B4
:103BF00023F40073FB813B681B891B029AB2FB898B
:103C00001343FB813B685B881B029AB2FB89134319
:103C1000FB817B68224A934203D07B68214A93420E
:103C20002BD1FB8923F40063FB813B685B891B027A
:103C30009AB2FB891343FB81FB8923F48063FB81E8
:103C40003B689B881B029AB2FB891343FB81BB89AB
:103C500023F48053BB81BB8923F40053BB813B68B1
:103C60009B891B019AB2BB891343BB813B68DB89EB
:103C70001B019AB2BB891343BB817B68BA899A80C6
:103C80007B687A899A833B68DA887B689A877B6845
:103C9000FA891A8400BF1437BD4680BC704700BF44
:103CA000002C01400034014080B485B000AF786042
:103CB00039600023BB8100237B810023FB817B686B
:103CC0001B8C9BB223F480539AB27B681A847B6866
:103CD0001B8C7B817B689B88FB817B689B8BBB817A
:103CE000BB8923F4E043BB81BB8923F44073BB81D0
:103CF0003B681B881B029AB2BB891343BB817B893B
:103D000023F400537B813B681B891B039AB27B8998
:103D100013437B813B685B881B039AB27B89134307
:103D20007B817B68124A934203D07B68114A93429D
:103D30000AD1FB8923F48043FB813B689B899B016B
:103D40009AB2FB891343FB817B68FA899A807B686E
:103D5000BA899A833B68DA887B68A3F840207B683D
:103D60007A891A8400BF1437BD4680BC704700BFF3
:103D7000002C01400034014080B582B000AF786073
:103D800039603B681B88002B0FD13B6859883B6822
:103D90009A883B681B89786801F084F93B68DB8866
:103DA0001946786801F03EF836E03B681B88042B22
:103DB0000FD13B6859883B689A883B681B897868B3
:103DC00001F0E0F93B68DB881946786801F046F8B5
:103DD00022E03B681B88082B0FD13B6859883B6861
:103DE0009A883B681B89786801F046FA3B68DB8853
:103DF0001946786801F050F80EE03B6859883B6836
:103E00009A883B681B89786801F0ACFA3B68DB88CC
:103E10001946786801F05CF800BF0837BD4680BDE0
:103E200080B584B000AF786039600023FB81012346
:103E3000BB813B685B88002B02D10223FB8101E040
:103E40000023FB813B689B88012B02D10223BB81AD
:103E500001E00123BB813B681B88002B1CD13B6820
:103E600059883B689A883B681B89786801F01AF981
:103E70003B68DB881946786800F0D4FF3B681B89F3
:103E8000BA89F989786801F07DF93B68DB881946C1
:103E9000786800F0E3FF1BE03B6859883B689A882C
:103EA0003B681B89786801F06DF93B68DB8819462F
:103EB000786800F0D3FF3B681B89BA89F989786874
:103EC00001F0F0F83B68DB881946786800F0AAFF3B
:103ED00000BF1037BD4680BD80B483B000AF7860AE
:103EE00039603B681A883B685B8813439AB23B6829
:103EF0009B8813439AB23B68DB8813439AB23B68B2
:103F00001B8913439AB23B685B8913439AB23B689F
:103F10009B8913439AB27B68A3F8442000BF0C37F7
:103F2000BD4680BC704700BF80B483B000AF7860EE
:103F30007B684FF6FF729A807B6800221A807B684C
:103F40000022DA807B6800225A807B6800221A7285
:103F500000BF0C37BD4680BC704700BF80B483B043
:103F600000AF78607B6800221A807B6800225A804C
:103F70007B6800229A807B680022DA807B680022BE
:103F80001A817B6800225A817B6800229A817B68B3
:103F90000022DA8100BF0C37BD4680BC704700BFED
:103FA00080B483B000AF78607B6800221A807B68A1
:103FB00000225A807B6801229A807B680022DA8086
:103FC0007B6800221A8100BF0C37BD4680BC704759
:103FD00080B483B000AF78607B6800221A807B6871
:103FE00000225A807B6800229A807B680022DA8057
:103FF0007B6800221A817B6800225A817B6800223C
:104000009A8100BF0C37BD4680BC704780B483B036
:1040100000AF78600B46FB70FB78002B08D07B6804
:104020001B889BB243F001039AB27B681A8007E0B9
:104030007B681B889BB223F001039AB27B681A80CD
:1040400000BF0C37BD4680BC704700BF80B483B052
:1040500000AF78600B46FB70FB78002B0CD07B68C0
:10406000B3F844309BB26FEA43436FEA53439AB2CA
:104070007B68A3F8442009E07B68B3F844309BB226
:10408000C3F30E039AB27B68A3F8442000BF0C3739
:10409000BD4680BC704700BF80B483B000AF78607D
:1040A0000B467B8013467B707B78002B08D07B68A7
:1040B0009B899AB27B8813439AB27B689A8109E004
:1040C0007B689B899AB27B88DB439BB213409AB290
:1040D0007B689A8100BF0C37BD4680BC704700BF2B
:1040E00080B483B000AF78600B467B807B687A88B1
:1040F0009A8200BF0C37BD4680BC704780B483B045
:1041000000AF78600B467B8013463B807A883B8803
:1041100013439AB27B68A3F8482000BF0C37BD4612
:1041200080BC704780B483B000AF78600B467B8062
:1041300013467B707B78002B08D07B689B899AB2F2
:104140007B8813439AB27B689A8109E07B689B89DC
:104150009AB27B88DB439BB213409AB27B689A8108
:1041600000BF0C37BD4680BC704700BF80B483B031
:1041700000AF78607B681B899BB223F007039AB27B
:104180007B681A8100BF0C37BD4680BC704700BFFA
:1041900080B582B000AF78600B467B807B88194683
:1041A000786800F0E5F87B681B899BB243F0070351
:1041B0009AB27B681A8100BF0837BD4680BD00BF38
:1041C00080B584B000AFF860084611461A46034631
:1041D0007B810B463B811346FB807B89602B06D19C
:1041E000FB8839890122F86800F0CCFF05E0FB88E4
:1041F00039890122F86800F055FF7B891946F86873
:1042000000F0B6F8FB681B899BB243F007039AB233
:10421000FB681A8100BF1037BD4680BD80B586B0EF
:1042200000AFF860084611461A4603467B810B46EC
:104230003B811346FB800023FB82FB883A89798906
:10424000F86800F03BF8FB681B89FB82FB8A23F0CF
:104250000703FB82FB8A43F00703FB82FB8A23F000
:104260007003FB82FB8A43F07003FB82FB68FA8ACF
:104270001A8100BF1837BD4680BD00BF80B584B02D
:1042800000AFF860084611461A4603467B810B468C
:104290003B811346FB80FB883A897989F86800F0F6
:1042A0000DF8FB681B899BB243F480439AB2FB680C
:1042B0001A8100BF1037BD4680BD00BF80B487B0F3
:1042C00000AFF860084611461A4603467B810B464C
:1042D0003B811346FB800023FB82FB681B89FB822A
:1042E000FB8ADBB2FB82FB881B029AB23B89134339
:1042F0009AB27B8913439AB2FB8A1343FB82FB6811
:10430000FA8A1A8100BF1C37BD4680BC704700BFC7
:1043100080B483B000AF78600B467B8013463B804F
:104320007B687A881A857B683A889A8200BF0C3746
:10433000BD4680BC704700BF80B485B000AF7860D8
:104340000B467B800023FB817B681B88FB81FB89FC
:1043500023F07003FB81FA897B881343FB817B6820
:10436000FA891A8000BF1437BD4680BC704700BF71
:1043700080B485B000AF78600B467B800023FB8162
:104380007B681B89FB81FB8923F07003FB81FA8921
:104390007B881343FB817B68FA891A8100BF14373D
:1043A000BD4680BC704700BF80B487B000AFF860E6
:1043B000084611461A4603467B810B463B8113464D
:1043C000FB800023FB820023BB8200237B82FB68EF
:1043D0001B89FB82FB681B8BBB82FB681B8C7B826F
:1043E000FB8A23F00703FB82FA8A7B891343FB8253
:1043F000BB8A23F4407323F00303BB82BB8A43F4DC
:10440000807343F00103BB827B8A23F022037B820B
:10441000FB881B019AB23B8913439AB27B8A1343F0
:104420007B82FB68FA8A1A81FB68BA8A1A83FB6866
:104430007A8A1A8400BF1C37BD4680BC704700BF13
:1044400080B485B000AF78600B467B800023FB8191
:104450007B681B8BFB81FB8923F07003FB81FA894E
:104460007B881343FB817B68FA891A8300BF14376A
:10447000BD4680BC704700BF80B485B000AF786097
:104480000B467B800023FB817B681B8BFB81FB89B8
:1044900023F4E043FB817B881B029AB2FB89134320
:1044A000FB817B68FA891A8300BF1437BD4680BC44
:1044B000704700BF80B485B000AF78600B467B804A
:1044C0000023FB817B689B8BFB81FB8923F07003BE
:1044D000FB81FA897B881343FB817B68FA899A8385
:1044E00000BF1437BD4680BC704700BF80B485B0A4
:1044F00000AF78600B467B800023FB817B689B8B41
:10450000FB81FB8923F4E043FB817B881B029AB289
:10451000FB891343FB817B68FA899A8300BF1437B8
:10452000BD4680BC704700BF80B483B000AF7860E8
:104530000B46FB70FB78002B08D07B681B889BB276
:1045400043F080039AB27B681A8007E07B681B887F
:104550009BB223F080039AB27B681A8000BF0C37AD
:10456000BD4680BC704700BF80B483B000AF7860A8
:104570000B46FB70FB78002B08D07B689B889BB2B6
:1045800043F004039AB27B689A8007E07B689B88BB
:104590009BB223F004039AB27B689A8000BF0C3769
:1045A000BD4680BC704700BF80B483B000AF786068
:1045B0000B46FB70FB78002B08D07B689B889BB276
:1045C00043F008039AB27B689A8007E07B689B8877
:1045D0009BB223F008039AB27B689A8000BF0C3725
:1045E000BD4680BC704700BF80B483B000AF786028
:1045F0000B46FB70FB78002B08D07B689B889BB236
:1046000043F001039AB27B689A8007E07B689B883D
:104610009BB223F001039AB27B689A8000BF0C37EB
:10462000BD4680BC704700BF80B485B000AF7860E5
:104630000B467B800023FB817B681B8BFB81FB8906
:1046400023F00803FB81FA897B881343FB817B6895
:10465000FA891A8300BF1437BD4680BC704700BF7B
:1046600080B485B000AF78600B467B800023FB816F
:104670007B681B8BFB81FB8923F40063FB817B88B8
:104680001B029AB2FB891343FB817B68FA891A8368
:1046900000BF1437BD4680BC704700BF80B485B0F2
:1046A00000AF78600B467B800023FB817B689B8B8F
:1046B000FB81FB8923F00803FB81FA897B88134384
:1046C000FB817B68FA899A8300BF1437BD4680BCA2
:1046D000704700BF80B485B000AF78600B467B8028
:1046E0000023FB817B689B8BFB81FB8923F40063A8
:1046F000FB817B881B029AB2FB891343FB817B6899
:10470000FA899A8300BF1437BD4680BC704700BF4A
:1047100080B485B000AF78600B467B800023FB81BE
:104720007B681B8BFB81FB8923F00403FB81FA89E7
:104730007B881343FB817B68FA891A8300BF143797
:10474000BD4680BC704700BF80B485B000AF7860C4
:104750000B467B800023FB817B681B8BFB81FB89E5
:1047600023F48063FB817B881B029AB2FB8913438D
:10477000FB817B68FA891A8300BF1437BD4680BC71
:10478000704700BF80B485B000AF78600B467B8077
:104790000023FB817B689B8BFB81FB8923F0040357
:1047A000FB81FA897B881343FB817B68FA899A83B2
:1047B00000BF1437BD4680BC704700BF80B485B0D1
:1047C00000AF78600B467B800023FB817B689B8B6E
:1047D000FB81FB8923F48063FB817B881B029AB2F7
:1047E000FB891343FB817B68FA899A8300BF1437E6
:1047F000BD4680BC704700BF80B485B000AF786014
:104800000B467B800023FB817B681B8BFB81FB8934
:1048100023F08003FB81FA897B881343FB817B684B
:10482000FA891A8300BF1437BD4680BC704700BFA9
:1048300080B485B000AF78600B467B800023FB819D
:104840007B681B8BFB81FB89C3F30E03FB817B8899
:104850001B029AB2FB891343FB817B68FA891A8396
:1048600000BF1437BD4680BC704700BF80B485B020
:1048700000AF78600B467B800023FB817B689B8BBD
:10488000FB81FB8923F08003FB81FA897B8813433A
:10489000FB817B68FA899A8300BF1437BD4680BCD0
:1048A000704700BF80B485B000AF78600B467B8056
:1048B0000023FB817B689B8BFB81FB89C3F30E0389
:1048C000FB817B881B029AB2FB891343FB817B68C7
:1048D000FA899A8300BF1437BD4680BC704700BF79
:1048E00080B485B000AF78600B467B800023FB81ED
:1048F0007B681B8CFB81FB8923F00203FB81FA8917
:104900007B881343FB817B68FA891A8400BF1437C4
:10491000BD4680BC704700BF80B485B000AF7860F2
:104920000B467B800023FB817B681B8CFB81FB8912
:1049300023F00803FB81FA897B881343FB817B68A2
:10494000FA891A8400BF1437BD4680BC704700BF87
:1049500080B485B000AF78600B467B800023FB817C
:104960007B681B8CFB81FB8923F02003FB817B8808
:104970001B019AB2FB891343FB817B68FA891A8475
:1049800000BF1437BD4680BC704700BF80B485B0FF
:1049900000AF78600B467B800023FB817B681B8C1B
:1049A000FB81FB8923F08003FB817B881B019AB28A
:1049B000FB891343FB817B68FA891A8400BF143793
:1049C000BD4680BC704700BF80B485B000AF786042
:1049D0000B467B800023FB817B681B8CFB81FB8962
:1049E00023F40073FB817B881B029AB2FB8913437B
:1049F000FB817B68FA891A8400BF1437BD4680BCEE
:104A0000704700BF80B485B000AF78600B467B80F4
:104A10000023FB817B681B8CFB81FB8923F40063F3
:104A2000FB817B881B029AB2FB891343FB817B6865
:104A3000FA891A8400BF1437BD4680BC704700BF96
:104A400080B485B000AF78600B467B800023FB818B
:104A50007B681B8CFB81FB8923F40053FB817B88E3
:104A60001B039AB2FB891343FB817B68FA891A8482
:104A700000BF1437BD4680BC704700BF80B485B00E
:104A800000AF78600B467B8013463B800023FB81A0
:104A90007B88012202FA03F3FB817B681B8C9AB2AC
:104AA000FB89DB439BB213409AB27B681A847B6814
:104AB0001B8C9BB21AB239887B8801FA03F31BB2B4
:104AC00013431BB29AB27B681A8400BF1437BD46E9
:104AD00080BC704780B485B000AF78600B467B80A7
:104AE00013463B800023FB817B88042202FA03F3F8
:104AF000FB817B681B8C9AB2FB89DB439BB2134022
:104B00009AB27B681A847B681B8C9BB21AB2398874
:104B10007B8801FA03F31BB213431BB29AB27B6882
:104B20001A8400BF1437BD4680BC704780B485B07E
:104B300000AF78600B467B8013463B800023FB6010
:104B400000237B817B68FB60FB681833FB607B88FC
:104B5000012202FA03F37B817B681B8C9AB27B896A
:104B6000DB439BB213409AB27B681A847B88002B8C
:104B700002D07B88082B13D17B885B089BB21A4636
:104B8000FB681344FB60FB68FA68126822F070024D
:104B90001A60FB68FA6811683A880A431A6016E0DE
:104BA0007B88043B9BB25B089BB21A46FB681344AC
:104BB000FB60FB68FA68126822F4E0421A60FB6846
:104BC000FA6812683988090289B20A431A6000BF7C
:104BD0001437BD4680BC704780B483B000AF7860A6
:104BE0000B46FB70FB78002B08D07B681B889BB2C0
:104BF00043F002039AB27B681A8007E07B681B8847
:104C00009BB223F002039AB27B681A8000BF0C3774
:104C1000BD4680BC704700BF80B483B000AF7860F1
:104C20000B467B807B88002B08D07B681B889BB25F
:104C300043F004039AB27B681A8007E07B681B8804
:104C40009BB223F004039AB27B681A8000BF0C3732
:104C5000BD4680BC704700BF80B483B000AF7860B1
:104C60000B46FB70FB78002B08D07B689B889BB2BF
:104C700043F080039AB27B689A8007E07B689B8848
:104C80009BB223F080039AB27B689A8000BF0C37F6
:104C9000BD4680BC704700BF80B483B000AF786071
:104CA0000B467B807B681B889BB223F008039AB27B
:104CB0007B681A807B681B889AB27B8813439AB200
:104CC0007B681A8000BF0C37BD4680BC704700BFB0
:104CD00080B483B000AF78600B467B807B689B8894
:104CE0009BB223F070039AB27B689A807B689B88A2
:104CF0009AB27B8813439AB27B689A8000BF0C37C4
:104D0000BD4680BC704700BF80B483B000AF786000
:104D10000B467B807B681B899BB223F007039AB20A
:104D20007B681A817B681B899AB27B8813439AB28D
:104D30007B681A8100BF0C37BD4680BC704700BF3E
:104D400080B483B000AF78600B467B807B681B89A2
:104D50009BB223F080039AB27B681A817B681B891F
:104D60009AB27B8813439AB27B681A8100BF0C37D2
:104D7000BD4680BC704700BF80B483B000AF786090
:104D80000B467B807B687A889A8400BF0C37BD46CF
:104D900080BC704780B483B000AF78600B467B80E6
:104DA0007B687A889A8500BF0C37BD4680BC704707
:104DB00080B483B000AF78600B467B807B687A88D4
:104DC0009A8600BF0C37BD4680BC704780B483B064
:104DD00000AF78600B467B807B687A881A8700BFBB
:104DE0000C37BD4680BC704780B483B000AF78609C
:104DF0000B467B807B687A889A8700BF0C37BD465C
:104E000080BC704780B483B000AF78600B467B8075
:104E10007B687A88A3F8402000BF0C37BD4680BC71
:104E2000704700BF80B483B000AF78600B467B80D2
:104E30007B681B8B9BB223F00C039AB27B681A83AE
:104E40007B681B8B9AB27B8813439AB27B681A8368
:104E500000BF0C37BD4680BC704700BF80B483B034
:104E600000AF78600B467B807B681B8B9BB223F482
:104E700040639AB27B681A837B681B8B9AB27B88EB
:104E80001B029BB213439AB27B681A8300BF0C3794
:104E9000BD4680BC704700BF80B483B000AF78606F
:104EA0000B467B807B689B8B9BB223F00C039AB2F2
:104EB0007B689A837B689B8B9AB27B8813439AB2F8
:104EC0007B689A8300BF0C37BD4680BC704700BF2B
:104ED00080B483B000AF78600B467B807B689B8B8F
:104EE0009BB223F440639AB27B689A837B689B8B66
:104EF0009AB27B881B029BB213439AB27B689A8357
:104F000000BF0C37BD4680BC704700BF80B483B083
:104F100000AF78600B467B807B681B889BB223F4D4
:104F200040739AB27B681A807B681B889AB27B8830
:104F300013439AB27B681A8000BF0C37BD4680BC11
:104F4000704700BF80B483B000AF78607B689B8EF1
:104F50009BB218460C37BD4680BC704780B483B006
:104F600000AF78607B681B8F9BB218460C37BD463C
:104F700080BC704780B483B000AF78607B689B8F43
:104F80009BB218460C37BD4680BC704780B483B0D6
:104F900000AF78607B68B3F840309BB218460C379E
:104FA000BD4680BC704700BF80B483B000AF78605E
:104FB0007B689B8C9BB218460C37BD4680BC704703
:104FC00080B483B000AF78607B681B8D9BB21846BD
:104FD0000C37BD4680BC704780B485B000AF7860A8
:104FE0000B467B800023FB737B681B8A9AB27B880D
:104FF00013409BB2002B02D00123FB7301E000237E
:10500000FB73FB7B18461437BD4680BC704700BF5E
:1050100080B483B000AF78600B467B807B88DB4335
:105020009AB27B681A8200BF0C37BD4680BC7047BD
:1050300080B485B000AF78600B467B800023FB73A3
:105040000023BB8100237B817B681B8A9AB27B880B
:105050001340BB817B689B899AB27B8813407B811C
:10506000BB89002B05D07B89002B02D00123FB7369
:1050700001E00023FB73FB7B18461437BD4680BC60
:10508000704700BF80B483B000AF78600B467B8070
:105090007B88DB439AB27B681A8200BF0C37BD461F
:1050A00080BC704780B487B000AFF86008461146F6
:1050B0001A4603467B810B463B811346FB80002347
:1050C000BB820023FB82FB681B8C9BB223F0010395
:1050D0009AB2FB681A84FB681B8BBB82FB681B8C33
:1050E000FB82BB8A23F0F303BB82FB881B019AB2CD
:1050F0003B8913439AB2BB8A1343BB82FB681C4AA9
:10510000934213D0FB681B4A93420FD0FB68B3F164
:10511000804F0BD0FB68184A934207D0FB68174AB0
:10512000934203D0FB68164A93420BD1FB8A23F0CB
:105130000203FB827A89FB8A13439BB243F001038B
:10514000FB820AE0FB8A23F00A03FB827A89FB8A4E
:1051500013439BB243F00103FB82FB68BA8A1A83B4
:10516000FB68FA8A1A8400BF1C37BD4680BC7047B2
:10517000002C0140003401400004004000080040C1
:10518000000C004080B487B000AFF86008461146BC
:105190001A4603467B810B463B811346FB80002366
:1051A000BB820023FB8200237B82FB681B8C9BB2AB
:1051B00023F010039AB2FB681A84FB681B8BBB8236
:1051C000FB681B8CFB827B891B017B82BB8A23F4DF
:1051D00040731B051B0DBB82FB881B039AB2BB8A65
:1051E0001343BB823B891B029AB2BB8A1343BB8227
:1051F000FB681C4A934213D0FB681B4A93420FD0B2
:10520000FB68B3F1804F0BD0FB68184A934207D07C
:10521000FB68174A934203D0FB68164A93420BD1AE
:10522000FB8A23F02003FB827A8AFB8A13439BB21A
:1052300043F01003FB820AE0FB8A23F0A003FB8209
:105240007A89FB8A13439BB243F01003FB82FB680D
:10525000BA8A1A83FB68FA8A1A8400BF1C37BD46D3
:1052600080BC7047002C0140003401400004004025
:1052700000080040000C004080B487B000AFF86028
:10528000084611461A4603467B810B463B8113466E
:10529000FB800023BB820023FB8200237B82FB6810
:1052A0001B8C9BB223F480739AB2FB681A84FB6850
:1052B0009B8BBB82FB681B8CFB827B891B027B82E6
:1052C000BB8A23F0F303BB82FB881B019AB23B89A4
:1052D00013439AB2BB8A1343BB82FB681C4A9342B6
:1052E00013D0FB681B4A93420FD0FB68B3F1804F89
:1052F0000BD0FB68184A934207D0FB68174A9342C9
:1053000003D0FB68164A93420BD1FB8A23F4007347
:10531000FB827A8AFB8A13439BB243F48073FB823D
:105320000AE0FB8A23F42063FB827A89FB8A134319
:105330009BB243F48073FB82FB68BA8A9A83FB6852
:10534000FA8A1A8400BF1C37BD4680BC704700BF74
:10535000002C0140003401400004004000080040DF
:10536000000C004080B487B000AFF86008461146DA
:105370001A4603467B810B463B811346FB80002384
:10538000BB820023FB8200237B82FB681B8C9BB2C9
:1053900023F480539AB2FB681A84FB689B8BBB8210
:1053A000FB681B8CFB827B891B037B82BB8A23F4FB
:1053B00040731B051B0DBB823B891B029AB2BB8A43
:1053C0001343BB82FB881B039AB2BB8A1343BB8285
:1053D000FB681D4A934213D0FB681C4A93420FD0CE
:1053E000FB68B3F1804F0BD0FB68194A934207D09A
:1053F000FB68184A934203D0FB68174A93420BD1CB
:10540000FB8A23F40053FB827A8AFB8A13439BB204
:1054100043F48053FB820CE0FB8A23F400735B04AB
:105420005B0CFB827A89FB8A13439BB243F4805363
:10543000FB82FB68BA8A9A83FB68FA8A1A8400BFE7
:105440001C37BD4680BC7047002C01400034014031
:105450000004004000080040000C00400000000074
:1054600080B590B000AFF860B9607A603B60374BB0
:105470001B78DBB21A4613461B019B1A9B00344A69
:105480001344FB6307F12C037A68B968F86800F0ED
:1054900071FB07F1200207F12C031146184600F0BA
:1054A00061FC07F12C031946F86B00F0F3FB07F1E0
:1054B0002C031946F86B00F06DF9F86B00F024FC32
:1054C0000246FB6B1A61FB6B1B69002B3AD007F19C
:1054D0002003184600F078FC0246FB6BDA61FB6B98
:1054E000DB69184600F0B4FC0246FB6B1A6297F8C1
:1054F00048301A463968F86B00F0B8FCF86B00F0D9
:105500002BF807F1140207F120031946F86B00F09D
:10551000F7FC07F1140319460E4800F005F9B863CB
:10552000B96BF86B00F0AAF8FB6B5B6907F114022A
:1055300007F12C01184600F05BF900F043F900F088
:1055400041F800E000BF4037BD4680BDDC0F0020C1
:10555000A40B0020340A002080B582B000AF786030
:105560007B681B69184602F041F902467B681B6A9A
:105570001946104602F08EF903460F49184602F00C
:1055800089F903460D49184602F084F903460B4990
:10559000184602F07FF903460949184602F02EFA30
:1055A0000346184600F070FD03461A467B68DA622F
:1055B00000BF0837BD4680BD00002041000070429A
:1055C00000A08C4690B585B000AF294B1B78FB73CB
:1055D0000023BB602AE0BB687B60FA7B13461B019B
:1055E0009B1A9B00234A1344BB607B68002B17D097
:1055F0007B689A697B685B691946104602F0FEF980
:1056000003461C46BB689A697B685B69194610466D
:1056100002F0F4F903461A462146786800F004F9CE
:10562000FB7B184600F0ECFC0346FB73124B1B7827
:10563000DBB2FA7B9A42CED1BB689A69BB685B69E0
:105640001946104602F0DAF903461C46BB685B694E
:1056500019464FF0000002F0D1F903461A462146E0
:10566000B86800F0E1F800BF1437BD4690BD00BF38
:10567000A00B0020A40B0020DC0F002080B584B01C
:1056800000AF786039607B684FF000029A61224B6E
:105690001B78DAB2214B1B78DBB29A421CD03868F7
:1056A00001F06EFC1AA3D3E9002301F02FFF03469B
:1056B000002B11D01A4B9A697B685B69194610461A
:1056C00002F0A4FA0346002B02D07B685B6901E07C
:1056D000134B9B697A6893617B68DB691A464FF0CC
:1056E0000001104800F016FAF8607B689B69F968C1
:1056F000184602F08BFA0346002B01D0FB6801E04C
:105700007B689B697A68936100BF1037BD4680BD96
:10571000666666666666EE3FDC0F0020A00B002022
:10572000280A002000A00CC790B583B000AF7860B5
:1057300039607B681A683B681B681946104602F09E
:10574000A9F803461C467B6804331A683B68043397
:105750001B681946104602F09DF80346194620467C
:1057600001F090FF03461C467B6808331A683B68CB
:1057700008331B681946104602F08CF80346194698
:10578000204601F07FFF034683F0004318460C37A4
:10579000BD4690BD80B582B000AF786039607B684F
:1057A00000221A70386800F039FA03461A467B68FE
:1057B0001B781343DAB27B681A7000BF0837BD4606
:1057C00080BD00BF80B500AF074B1A78074B1A7039
:1057D000064B1B78DBB2184600F012FC03461A4653
:1057E000014B1A7000BF80BDDD0F0020DC0F0020D0
:1057F00080B584B000AFF860B9607A60084AFB6891
:1058000093610C227968074802F02AFA0C22B968E1
:10581000034802F025FA00BF1037BD4680BD00BF27
:10582000280A0020340A0020B0B588B000AFF86024
:10583000B9607A60FB689B6B184601F0D3FF0346A2
:10584000B968184602F026F80346184600F000FC36
:105850000246FB685A62FB689B6B184601F0C2FF68
:1058600003467968184602F015F80346184600F01A
:10587000EFFB0246FB689A62FB68DB6A4FF49672A4
:1058800002FB03F3184601F069FB4FF000023A4BAC
:1058900001F0CAFB03460C461846214601F074FE8F
:1058A0000346FB61F969354803F0D2F8FB685B6A8F
:1058B000184601F097FF0446FB689B6B184601F001
:1058C00091FF0546F86901F091FF03461A46294603
:1058D000204600F0F9F80346184600F0B9FB0346ED
:1058E0007B61FB689B6B184601F07CFF0446FB68FC
:1058F0009B6A184601F076FF0546FB695B42184635
:1059000001F074FF03461A462946204600F0DCF8F1
:105910000346184600F0B8FB0346BB617B69BA69D1
:105920001946174803F094F8FB681B697969BA694E
:10593000184600F0B9F803463B6107F1140207F17D
:1059400010031946F86800F01FF87B691A46FB68D7
:105950001A637A693B6913441A46FB685A63FB6809
:10596000196BFB685B6B1A46064803F071F800BFC1
:105970002037BD46B0BD00BF00004E40C4CC00087B
:10598000E0CC000800CD000880B584B000AFF8601E
:10599000B9607A60BB681B68002B0DDAF86800F00C
:1059A0000FF80346184600F053FB03461A467B687F
:1059B0001A60BB6800221A6000BF1037BD4680BD68
:1059C00090B589B000AF78607B685B6A184601F0DB
:1059D00009FF0346FB617B689B6A184601F002FFE2
:1059E0000346BB617B681B69184601F0FFFE034656
:1059F0007B612C4B3B613B691946184601F042FE26
:105A000003467969184601F045FF03461C46F969CB
:105A1000F86901F03FFF03461946204601F030FEC9
:105A200003461C46B969B86901F034FF03461946BC
:105A3000204601F027FE03461C464FF0814138699D
:105A400001F028FF03461946204601F0D7FF034620
:105A5000FB607B681B69184601F0C8FE0346F968C5
:105A6000184602F0B5F80346002B06D07B681B6988
:105A7000184601F0BBFE034600E0FB68FB604FF0F8
:105A80000001F86802F0A4F80346002B02D04FF0A2
:105A9000000300E0FB68FB60FB6818462437BD4646
:105AA00090BD00BF00BADB4A80B485B000AFF8609B
:105AB000B9607A60FA68BB68D21A7B68D31A184654
:105AC0001437BD4680BC704790B585B000AFF86014
:105AD000B9607A60B968B86801F0DCFE03461C461C
