:020000040800F2
:10000000FF4F0020594F0008A14F0008A14F0008E2
:10001000A14F0008A14F0008A14F000800000000F8
:10002000000000000000000000000000A14F0008D8
:10003000A14F000800000000A14F0008A14F0008D8
:10004000A14F0008A14F0008A14F0008A14F0008D0
:10005000A14F0008A14F0008A14F0008A14F0008C0
:10006000A14F0008A14F0008A14F0008A14F0008B0
:10007000A14F0008C10C0008A14F0008A14F0008C3
:10008000A14F0008A14F0008A14F0008A14F000890
:10009000A14F0008A14F0008A14F0008A14F000880
:1000A000A14F0008A14F0008A14F0008A14F000870
:1000B000CD010008A14F0008A14F0008A14F000882
:1000C000A14F0008A14F0008A14F0008A14F000850
:1000D000A14F0008A14F0008A14F0008A14F000840
:1000E000A14F0008A14F0008A14F00080000000028
:1000F0000000000000000000000000000000000000
:0C01000000000000000000005FF808F1A3
:10010C0010B5054C237833B9044B13B10448AFF345
:10011C0000800123237010BD640800200000000043
:10012C00B0570008084B10B51BB108490848AFF38D
:10013C0000800848036803B910BD074B002BFBD0A7
:10014C00BDE81040184700BF000000006808002000
:10015C00B0570008640800200000000080B483B091
:10016C0000AF0346FB71084997F907305B09FA7930
:10017C0002F01F02012000FA02F241F8232000BF16
:10018C000C37BD4680BC704700E100E080B483B002
:10019C0000AF0346FB71094997F907305B09FA79FF
:1001AC0002F01F02012000FA02F2203341F8232052
:1001BC0000BF0C37BD4680BC704700BF00E100E0BB
:1001CC0080B500AF01214FF0804003F0E1FE0B4BF6
:1001DC001B68DB43094A1360084B1B68002B05D0D6
:1001EC004FF40051064800F0F5FF04E04FF40051C5
:1001FC00034800F0FDFF00BF80BD00BF8008002059
:10020C000010014080B500AF064BDA69054BDB6886
:10021C009A4204D304F0B4F8034B00221A6000BFD6
:10022C0080BD00BFC8080020C008002080B400AF0B
:10023C00044BDA69044B1B681B6A9A4200BFBD462B
:10024C0080BC7047C8080020C008002080B483B070
:10025C0000AF786000BF18460C37BD4680BC7047B5
:10026C0080B483B000AF786000BF0C37BD4680BC53
:10027C00704700BF80B400AF00BF1846BD4680BCBD
:10028C00704700BF80B400AF00BFBD4680BC704754
:10029C0080B400AF00BFBD4680BC704780B400AFD7
:1002AC0000BFBD4680BC704780B500AF044B002238
:1002BC001A6030220021034804F084FD00BF80BD89
:1002CC00C0080020C808002080B500AF1C20FFF734
:1002DC005DFF024B00221A7000BF80BDC4080020D5
:1002EC0080B500AF1C20FFF739FF024B01221A70BA
:1002FC0000BF80BDC408002080B483B000AF78601C
:10030C007B685B68144A13617B689B68124A536173
:10031C007B68DB68104A93617B681B695B105B42EE
:10032C000D4A13600C4B1B680B4A53600A4B1B683D
:10033C00094A93607B681A78074B83F820207B6806
:10034C001B691A46044BDA60034B0022DA6100BFCA
:10035C000C37BD4680BC7047C808002080B500AF84
:10036C000B4B1B68002B10D104F024F80246084BF1
:10037C001A60074B1B68002B05D0054B1B681846F1
:10038C00FFF7BAFF01E0FFF79FFF00BF80BD00BF82
:10039C00C008002080B500AF184B93F82020184BF4
:1003AC001A70002000F0D0F803461A46144B1B7844
:1003BC001343DAB2124B1A70012000F0C5F8034651
:1003CC001A460F4B1B781343DAB20D4B1A700220EE
:1003DC0000F0BAF803461A46094B1B781343DAB2FD
:1003EC00074B1A7000F03AF800F08EFC034BDB69F7
:1003FC000133024AD36100BF80BD00BFC808002092
:10040C001409002080B582B000AF7860074B1B78D0
:10041C007968184600F060F90346002B01D04023A0
:10042C0000E0BF2318460837BD4680BD14090020E4
:10043C0080B582B000AF7860074B1B78796818469E
:10044C0000F06CF90346002B01D0002300E0802360
:10045C0018460837BD4680BD14090020B0B500AF62
:10046C00354B1C680020FFF7E3FF0346BF221946FB
:10047C00204601F0B7FC03461A46304B1A70304B3D
:10048C001C680120FFF7D4FF0346BF221946204603
:10049C0001F0A8FC03461A46284B5A70294B1C68DD
:1004AC000220FFF7C5FF0346BF221946204601F084
:1004BC0099FC03461A46214B9A701F4B1C6800206E
:1004CC00FFF7B6FF03461D460020FFF79BFF0346D0
:1004DC001A462946204601F085FC03461A46174B5E
:1004EC00DA70174B1C680120FFF7A2FF03461D466C
:1004FC000120FFF787FF03461A462946204601F0E4
:10050C0071FC03461A460D4B1A710E4B1C680220E7
:10051C00FFF78EFF03461D460220FFF773FF0346CD
:10052C001A462946204601F05DFC03461A46034B49
:10053C005A7100BFB0BD00BF2C0900201809002063
:10054C00280900202409002080B588B000AF78600D
:10055C000023FB772B4BDB68FB607B68002B07D100
:10056C00284B1B69BB6105237B6102233B6114E0B3
:10057C007B68012B07D1234B5B69BB6106237B6135
:10058C0003233B6109E07B68022B06D11D4B9B6961
:10059C00BB6107237B6104233B617B689B00194A89
:1005AC001344F968BA69184600F058F80346002B52
:1005BC0022D001223B6902FA03F3FB77114B93F82B
:1005CC0020301A467B6942FA03F303F00103002B37
:1005DC0009D00D4A7B6852F823305A1E0A497B68B1
:1005EC0041F8232008E0084A7B6852F823305A1C53
:1005FC0005497B6841F82320FB7F18462037BD4610
:10060C0080BD00BFC8080020500C002080B487B00B
:10061C0000AFF860B9607A603B6000237B61FB68D7
:10062C001B681A467B6813441A46FB681A60FB6801
:10063C001B68002B09DD01237B61FB681B681A46D4
:10064C00BB68D31A1A46FB681A603B687A691A6051
:10065C007B6918461C37BD4680BC704780B487B098
:10066C0000AFF860B9607A6000237B61FB681B689F
:10067C001A467B6813441A46FB681A60FB681B68B1
:10068C00002B09DDFB681B681A46BB68D31A1A4697
:10069C00FB681A60012300E0002318461C37BD4696
:1006AC0080BC704780B485B000AF03463960FB71E5
:1006BC00FA793B6842FA03F303F00103002B02D0F2
:1006CC000123FB6001E00023FB60FB681846143734
:1006DC00BD4680BC704700BF80B584B000AF0346F8
:1006EC003960FB713B68002B02D10223FB600AE0EE
:1006FC003B68012B02D10323FB6004E03B68022B17
:10070C0001D10423FB60FB79F9681846FFF7CAFF97
:10071C00034618461037BD4680BD00BF80B584B077
:10072C0000AF03463960FB713B68002B02D10523F7
:10073C00FB600AE03B68012B02D10623FB6004E05E
:10074C003B68022B01D10723FB60FB79F968184643
:10075C00FFF7A8FF034618461037BD4680BD00BF03
:10076C0080B485B000AFF8607A603B600B46FB72DA
:10077C003A68BB699A4238BF1A467B68934238BFC5
:10078C0013461A46FB681A61FB68FA7A1A70FB6802
:10079C007A685A60FB683A689A60FB68BA69DA60F2
:1007AC0000BF1437BD4680BC704700BF80B400AF9B
:1007BC0000BFBD4680BC704780B400AF0123184613
:1007CC00BD4680BC704700BF80B582B000AF78607A
:1007DC00396004F0E1FB0246162313604FF0FF333F
:1007EC0018460837BD4680BD80B582B000AF786032
:1007FC004FF0FF317868FFF7E7FFFEE790B587B061
:10080C0000AFF860B9607A6000237B610AE0BC68D5
:10081C00631CBB60AFF300800346DBB223707B69C3
:10082C0001337B617A697B689A42F0DB7B681846FE
:10083C001C37BD4690BD00BF80B586B000AFF860D8
:10084C00B9607A6000237B6109E0BB685A1CBA600E
:10085C001B781846AFF300807B6901337B617A69A2
:10086C007B689A42F1DB7B6818461837BD4680BD21
:10087C0080B584B000AF7860114B1B68002B02D19F
:10088C000F4B104A1A600E4B1B68FB600C4B1A681E
:10089C007B6813446A46934207D904F07DFB0246F9
:1008AC000C2313604FF0FF3306E0054B1A687B688E
:1008BC001344034A1360FB6818461037BD4680BDCD
:1008CC0088080020600C002080B483B000AF7860F2
:1008DC004FF0FF3318460C37BD4680BC704700BF45
:1008EC0080B483B000AF786039603B684FF400523D
:1008FC005A60002318460C37BD4680BC704700BFB9
:10090C0080B483B000AF7860012318460C37BD4625
:10091C0080BC704780B485B000AFF860B9607A6075
:10092C00002318461437BD4680BC70470EB480B403
:10093C0082B000AF78604FF0FF3318460837BD46E1
:10094C0080BC03B0704700BF80B582B000AF786048
:10095C0004F022FB02460A2313604FF0FF331846C3
:10096C000837BD4680BD00BF80B582B000AF78604F
:10097C0004F012FB0246022313604FF0FF331846BB
:10098C000837BD4680BD00BF80B483B000AF78602F
:10099C004FF0FF3318460C37BD4680BC704700BF84
:1009AC0080B483B000AF786039603B684FF400527C
:1009BC005A60002318460C37BD4680BC704700BFF8
:1009CC0080B582B000AF7860396004F0E5FA024679
:1009DC001F2313604FF0FF3318460837BD4680BD08
:1009EC0080B500AF04F0D8FA02460B2313604FF029
:1009FC00FF33184680BD00BF80B584B000AFF860EF
:100A0C00B9607A6004F0C8FA02460C2313604FF008
:100A1C00FF3318461037BD4680BD00BF80B483B08D
:100A2C0000AF0346FB71084997F907305B09FA7967
:100A3C0002F01F02012000FA02F241F8232000BF4D
:100A4C000C37BD4680BC704700E100E080B483B039
:100A5C0000AF03463960FB7197F90730002B0BDAB6
:100A6C000D49FB7903F00F03043B3A68D2B2120133
:100A7C00D2B20B441A7609E0084997F907303A6864
:100A8C00D2B21201D2B20B4483F8002300BF0C3750
:100A9C00BD4680BC704700BF00ED00E000E100E007
:100AAC0080B588B000AFF860084611461A46034678
:100ABC007B810B463B811346FB80FB68484A934283
:100ACC0005D101214FF4006000F0ACFF3EE0FB6863
:100ADC00B3F1804F04D10121012000F0C1FF35E0BA
:100AEC00FB68404A934204D10121022000F0B8FF78
:100AFC002CE0FB683C4A934204D10121042000F015
:100B0C00AFFF23E0FB68394A934204D1012108204E
:100B1C0000F0A6FF1AE0FB68354A934204D101218C
:100B2C00102000F09DFF11E0FB68324A934204D183
:100B3C000121202000F094FF08E0FB682E4A93422C
:100B4C0004D101214FF4005000F06CFFFB68B3F1AD
:100B5C00804F02D11C23FB6113E0FB68214A9342B6
:100B6C0002D11D23FB610CE0FB681F4A934202D1AA
:100B7C001E23FB6105E0FB681C4A934201D1322322
:100B8C00FB61FB695BB21846FFF748FFFB695BB280
:100B9C003A8D11461846FFF759FF7B893B823B89FA
:100BAC007B82FB88BB820023FB8207F11003194672
:100BBC00F86801F0E9FD0121F86802F0B3FF0021AB
:100BCC00F86802F037FC0121F86803F0E1F9012222
:100BDC000121F86802F0E6F900BF2037BD4680BD60
:100BEC00002C01400004004000080040000C0040B4
:100BFC0000100040001400400034014080B483B069
:100C0C0000AF0346FB71084997F907305B09FA7985
:100C1C0002F01F02012000FA02F241F8232000BF6B
:100C2C000C37BD4680BC704700E100E080B483B057
:100C3C0000AF0346FB71094997F907305B09FA7954
:100C4C0002F01F02012000FA02F2203341F82320A7
:100C5C0000BF0C37BD4680BC704700BF00E100E010
:100C6C0080B483B000AF03463960FB7197F907304D
:100C7C00002B0BDA0D49FB7903F00F03043B3A68A8
:100C8C00D2B21201D2B20B441A7609E0084997F994
:100C9C0007303A68D2B21201D2B20B4483F8002367
:100CAC0000BF0C37BD4680BC704700BF00ED00E0B4
:100CBC0000E100E080B500AF4FF4007001F0A8FA3D
:100CCC0000F0CAFF00F002F800BF80BD80B500AF95
:100CDC000A4BDA780A4B1A70084B1A79084B5A707F
:100CEC00064B5A79064B9A700D20FFF79FFF032194
:100CFC00044800F027F800BF80BD00BF1809002091
:100D0C00200900203000024080B500AF0A4B1A7851
:100D1C000A4B1A70084B5A78084B5A70064B9A7843
:100D2C00064B9A700D20FFF769FF0321044800F071
:100D3C0009F800BF80BD00BF180900202009002061
:100D4C003000024080B582B000AF7860396000217D
:100D5C00786801F09FF97B683A685A6001217868DD
:100D6C0001F098F900BF0837BD4680BD80B590B042
:100D7C0000AFF860B9607A603B600121012000F09F
:100D8C0033FEF86801F062F8BB683B617B687B61FD
:100D9C003B68BB61BB6CFB61FB6CBB623B6DFB627C
:100DAC0080237B6200233B627B6D3B634FF40053DB
:100DBC007B630023BB6307F110031946F86801F04D
:100DCC0001F9012202212C4801F080F9FB682B4A21
:100DDC00934202D10C23FB633DE0FB68284A93420B
:100DEC0002D10C23FB6336E0FB68234A934202D109
:100DFC000D23FB632FE0FB68224A934202D10E23A2
:100E0C00FB6328E0FB68204A934202D10F23FB636B
:100E1C0021E0FB681D4A934202D11023FB631AE0C8
:100E2C00FB681B4A934202D11123FB6313E0FB685E
:100E3C00184A934202D13823FB630CE0FB68164A34
:100E4C00934202D13923FB6305E0FB68134A9342BA
:100E5C0001D13A23FB63FB6B5BB2BA6D11461846AA
:100E6C00FFF7FEFEFB6B5BB21846FFF7C7FE00BF39
:100E7C004037BD4680BD00BF300002400800024034
:100E8C001C00024044000240580002406C0002402A
:100E9C0080000240080402401C040240300402405E
:100EAC0080B582B000AF78607B682F4A934208D13E
:100EBC000121042000F0F2FD0021042000F0EEFDE1
:100ECC004EE07B68294A934208D10121082000F0AA
:100EDC00E5FD0021082000F0E1FD41E07B68244A9B
:100EEC00934208D10121102000F0D8FD00211020E0
:100EFC0000F0D4FD34E07B681E4A934208D10121F6
:100F0C00202000F0CBFD0021202000F0C7FD27E0C1
:100F1C007B68194A934208D10121402000F0BEFDA4
:100F2C000021402000F0BAFD1AE07B68134A93427E
:100F3C0008D10121802000F0B1FD0021802000F0BB
:100F4C00ADFD0DE07B680E4A934209D101214FF4AF
:100F5C00807000F0A3FD00214FF4807000F09EFD26
:100F6C0000BF0837BD4680BD00080140000C0140A1
:100F7C00001001400014014000180140001C014009
:100F8C000020014080B500AF0121012000F086FD5A
:100F9C000021012000F082FD00BF80BD80B489B02B
:100FAC0000AF786039600023FB6100233B610023B4
:100FBC00BB610023FB6000237B610023BB603B68AB
:100FCC00DB7803F00F03FB613B68DB7803F0100365
:100FDC00002B05D03B689B781A46FB691343FB61D9
:100FEC003B681B88DBB2002B44D07B681B687B61A1
:100FFC000023BB6138E00122BB6902FA03F3FB60FA
:10100C003B681B881A46FB6813403B613A69FB68D6
:10101C009A4226D1BB699B00FB600F22FB6802FA47
:10102C0003F3BB60BB68DB437A6913407B61FA69ED
:10103C00FB6802FA03F37A6913437B613B68DB7844
:10104C00282B05D10122BB699A407B685A6108E0C4
:10105C003B68DB78482B04D10122BB699A407B6842
:10106C001A61BB690133BB61BB69072BC3D97B68B0
:10107C007A691A603B681B88FF2B46D97B685B68D2
:10108C007B610023BB613AE0BB690833012202FAA1
:10109C0003F3FB603B681B881A46FB6813403B61FB
:1010AC003A69FB689A4227D1BB699B00FB600F220F
:1010BC00FB6802FA03F3BB60BB68DB437A6913403D
:1010CC007B61FA69FB6802FA03F37A6913437B616B
:1010DC003B68DB78282B05D1BB69083301229A4089
:1010EC007B685A613B68DB78482B05D1BB690833B8
:1010FC0001229A407B681A61BB690133BB61BB69F1
:10110C00072BC1D97B687A695A6000BF2437BD466A
:10111C0080BC704780B483B000AF78607B684FF6BA
:10112C00FF721A807B6802229A707B680422DA7044
:10113C0000BF0C37BD4680BC704700BF80B485B083
:10114C0000AF78600B467B800023FB737B689A684A
:10115C007B881340002B02D00123FB7301E000239A
:10116C00FB73FB7B18461437BD4680BC704700BF31
:10117C0080B483B000AF78607B689B689BB21846E4
:10118C000C37BD4680BC704780B485B000AF78602A
:10119C000B467B800023FB737B68DA687B881340EB
:1011AC00002B02D00123FB7301E00023FB73FB7BBC
:1011BC0018461437BD4680BC704700BF80B483B05E
:1011CC0000AF78607B68DB689BB218460C37BD4675
:1011DC0080BC704780B483B000AF78600B467B80D6
:1011EC007A887B681A6100BF0C37BD4680BC70479B
:1011FC0080B483B000AF78600B467B807A887B68C4
:10120C005A6100BF0C37BD4680BC704780B483B0B8
:10121C0000AF78600B467B8013467B707B78002B8D
:10122C0003D07A887B681A6102E07A887B685A61FD
:10123C0000BF0C37BD4680BC704700BF80B483B084
:10124C0000AF78600B467B807A887B68DA6000BFE1
:10125C000C37BD4680BC704780B485B000AF786059
:10126C000B467B804FF48033FB607B88FA6813431A
:10127C00FB607B68FA689A617A887B689A617B6804
:10128C00FA689A617B689B69FB607B689B69FB6071
:10129C0000BF1437BD4680BC704700BF80B485B01A
:1012AC0000AF03460A46FB711346BB710023FB607B
:1012BC000C4B1B68FB60FA684FF680731340FB60A5
:1012CC00FB791B01FA681343FB60BB79FA68134383
:1012DC00FB60044AFB68136000BF1437BD4680BC3A
:1012EC00704700BF0000014080B483B000AF0346DC
:1012FC00FB71044AFB79136000BF0C37BD4680BC00
:10130C00704700BF1C00204280B487B000AF7860EB
:10131C000B46FB7000233B610023FB6000237B61C9
:10132C000023BB607B68002B03DA2E4BDB697B61EF
:10133C0002E02C4B5B687B617B681B0C03F00F039A
:10134C00BB607B689BB23B617B6803F44013B3F5D5
:10135C00401F0AD17B6923F070637B61214A214BCA
:10136C005B6823F07063536021E07B6803F48013A7
:10137C00002B0ED00322BB6802FA03F3FB60FB6860
:10138C00DB437A6913407B617B6943F070637B615B
:10139C000DE07B685B0D1B013A6902FA03F3DB433A
:1013AC007A6913407B617B6943F070637B61FB78E6
:1013BC00002B08D07B685B0D1B013A6902FA03F322
:1013CC007A6913437B617B68002B03DA054A7B69DE
:1013DC00D36102E0034A7B69536000BF1C37BD46F2
:1013EC0080BC70470000014090B484B000AF03464D
:1013FC000A46FB711346BB710023FB60BB7903F0FB
:10140C0003039B000F2202FA03F3FB601649BB791E
:10141C009B08DBB21846144ABB799B08DBB202333B
:10142C0052F82320FB68DB431A40831C41F823202D
:10143C000D48BB799B08DBB21C460B4ABB799B0859
:10144C00DBB2023352F82320F979BB7903F00303A2
:10145C009B0001FA03F31A43A31C40F8232000BF9E
:10146C001037BD4690BC70470000014080B483B07B
:10147C0000AF7860034A7B68136000BF0C37BD4631
:10148C0080BC7047DC00204280B400AF134A134B81
:10149C001B6843F0010313601049104B5A68104B42
:1014AC0013404B600D4A0D4B1B6823F0847323F4DF
:1014BC0080331360094A094B1B6823F480231360A3
:1014CC00064A064B5B6823F4FE035360034B4FF450
:1014DC001F029A6000BFBD4680BC704700100240DE
:1014EC000000FFF880B483B000AF7860134A134B50
:1014FC001B6823F480331360104A104B1B6823F4D1
:10150C00802313607B68B3F5803F03D0B3F5802F45
:10151C0007D00DE0094A094B1B6843F48033136074
:10152C0006E0064A054B1B6843F4A023136000BF7A
:10153C0000BF0C37BD4680BC704700BF0010024096
:10154C0080B582B000AF00233B600023FB71002309
:10155C00BB71312000F00EFB0346BB713B680133BD
:10156C003B603B68B3F5A06F02D0BB79002BF0D089
:10157C00312000F0FFFA0346002B02D00123FB714F
:10158C0001E00023FB71FB7918460837BD4680BD8E
:10159C0080B485B000AF0346FB710023FB600A4B9F
:1015AC001B68FB60FB6823F0F803FB60FB79DB0036
:1015BC00FA681343FB60044AFB68136000BF1437DE
:1015CC00BD4680BC704700BF0010024080B483B0A1
:1015DC0000AF0346FB71044AFB79136000BF0C3764
:1015EC00BD4680BC704700BF0000424280B485B04D
:1015FC0000AF786039600023FB600A4B5B68FB60CE
:10160C00FB6823F47C13FB607A683B681343FA682D
:10161C001343FB60034AFB68536000BF1437BD469D
:10162C0080BC70470010024080B483B000AF03460A
:10163C00FB71044AFB79136000BF0C37BD4680BCBC
:10164C00704700BF6000424280B485B000AF786044
:10165C000023FB60094B5B68FB60FB6823F0030312
:10166C00FB60FA687B681343FB60044AFB685360B9
:10167C0000BF1437BD4680BC704700BF001002404D
:10168C0080B400AF044B5B68DBB203F00C03DBB23D
:10169C001846BD4680BC70470010024080B485B02F
:1016AC0000AF78600023FB60094B5B68FB60FB6854
:1016BC0023F0F003FB60FA687B681343FB60044A79
:1016CC00FB68536000BF1437BD4680BC704700BF39
:1016DC000010024080B485B000AF78600023FB603E
:1016EC00094B5B68FB60FB6823F4E063FB60FA6802
:1016FC007B681343FB60044AFB68536000BF1437DC
:10170C00BD4680BC704700BF0010024080B485B05D
:10171C0000AF78600023FB60094B5B68FB60FB68E3
:10172C0023F46053FB607B68DB00FA681343FB60B7
:10173C00034AFB68536000BF1437BD4680BC70473A
:10174C000010024080B483B000AF03460A46FB7120
:10175C001346BB71BB79002B08D00C490B4B1B7883
:10176C00DAB2FB791343DBB20B7009E00749074B84
:10177C001B78DAB2FB79DB43DBB21340DBB20B70C4
:10178C0000BF0C37BD4680BC704700BF091002403B
:10179C0080B483B000AF7860034A7B68136000BFED
:1017AC000C37BD4680BC7047D800424280B485B02F
:1017BC0000AF78600023FB60094B5B68FB60FB6843
:1017CC0023F44043FB60FA687B681343FB60044AD4
:1017DC00FB68536000BF1437BD4680BC704700BF28
:1017EC000010024080B483B000AF0346FB710C4B79
:1017FC0000221A700A4B00221A70FB79012B02D0BE
:10180C00042B04D007E0064B01221A7003E0044BB2
:10181C0005221A7000BF00BF0C37BD4680BC704754
:10182C002010024080B483B000AF0346FB71044A21
:10183C00FB79136000BF0C37BD4680BC704700BFFE
:10184C008004424280B483B000AF78600549054BF8
:10185C001A6A7B6813430B6200BF0C37BD4680BC11
:10186C00704700BF0010024080B483B000AF034645
:10187C00FB71044AFB79136000BF0C37BD4680BC7A
:10188C00704700BF3C04424280B487B000AF786020
:10189C0000237B6100233B610023FB600023BB60C2
:1018AC004C4B5B6803F00C037B617B69042B07D00A
:1018BC00082B09D0002B33D17B68474A1A6033E0E0
:1018CC007B68454A1A602FE0424B5B6803F4701347
:1018DC003B61404B5B6803F48033FB603B699B0CC2
:1018EC0002333B61FB68002B06D13B693B4A02FB90
:1018FC0003F27B681A6017E0364B5B6803F4003325
:10190C00002B06D03B69354A02FB03F27B681A6058
:10191C000AE03B69304A02FB03F27B681A6003E081
:10192C007B682D4A1A6000BF2A4B5B6803F0F003FA
:10193C007B617B691B097B61294A7B6913441B789A
:10194C00DBB2BB607B681A68BB68DA407B685A60A4
:10195C00204B5B6803F4E0637B617B691B0A7B6152
:10196C001F4A7B6913441B78DBB2BB607B685A68E7
:10197C00BB68DA407B689A60164B5B6803F4605373
:10198C007B617B69DB0A7B61154A7B6913441B789D
:10199C00DBB2BB607B685A68BB68DA407B68DA6094
:1019AC000C4B5B6803F440437B617B699B0B7B6155
:1019BC000C4A7B6913441B78DBB2BB607B68DA682A
:1019CC00BB68B2FBF3F27B681A6100BF1C37BD46E3
:1019DC0080BC70470010024000127A0000093D00E4
:1019EC00000000201000002080B483B000AF7860AD
:1019FC000B46FB70FB78002B06D00949084B5A6943
:101A0C007B6813434B6106E00549054B5A697B68BB
:101A1C00DB4313404B6100BF0C37BD4680BC7047A5
:101A2C000010024080B483B000AF78600B46FB70AE
:101A3C00FB78002B06D00949084B9A697B68134345
:101A4C008B6106E00549054B9A697B68DB431340C3
:101A5C008B6100BF0C37BD4680BC70470010024044
:101A6C0080B483B000AF78600B46FB70FB78002B22
:101A7C0006D00949084BDA697B681343CB6106E051
:101A8C000549054BDA697B68DB431340CB6100BF2A
:101A9C000C37BD4680BC70470010024080B483B048
:101AAC0000AF78600B46FB70FB78002B06D0094921
:101ABC00084BDA687B681343CB6006E00549054B9D
:101ACC00DA687B68DB431340CB6000BF0C37BD4644
:101ADC0080BC70470010024080B483B000AF7860C7
:101AEC000B46FB70FB78002B06D00949084B1A6992
:101AFC007B6813430B6106E00549054B1A697B684B
:101B0C00DB4313400B6100BF0C37BD4680BC7047F4
:101B1C000010024080B483B000AF0346FB71044A4E
:101B2C00FB79136000BF0C37BD4680BC704700BF0B
:101B3C004004424280B483B000AF0346FB71044AB8
:101B4C00FB79136000BF0C37BD4680BC704700BFEB
:101B5C004C00424280B483B000AF0346FB71044A90
:101B6C00FB79137000BF0C37BD4680BC704700BFBB
:101B7C000710024080B487B000AF0346FB7100230E
:101B8C00FB6000237B610023FB74FB795B09DBB2F8
:101B9C00FB60FB68012B03D1124B1B687B6109E0D6
:101BAC00FB68022B03D10F4B1B6A7B6102E00D4BD0
:101BBC005B6A7B61FB7903F01F03FB607A69FB684E
:101BCC0022FA03F303F00103002B02D00123FB7470
:101BDC0001E00023FB74FB7C18461C37BD4680BC1F
:101BEC00704700BF0010024080B400AF044A044BA1
:101BFC005B6A43F08073536200BFBD4680BC704784
:101C0C000010024080B485B000AF0346FB71002386
:101C1C00FB73084B9A68FB791340002B02D001230D
:101C2C00FB7301E00023FB73FB7B18461437BD46A6
:101C3C0080BC70470010024080B483B000AF0346F4
:101C4C00FB71044AFB79137000BF0C37BD4680BC96
:101C5C00704700BF0A10024080B500AF1021044845
:101C6C00FFF7C6FA10210248FFF7B4FA00BF80BD97
:101C7C000008014080B58AB000AFF86008461146F4
:101C8C001A4603467B810B463B811346FB80FB685F
:101C9C002F4A934205D101214FF48050FFF7C2FE29
:101CAC0012E0FB682B4A934205D101214FF480408E
:101CBC00FFF7B8FE08E0FB68274A934204D10121E4
:101CCC004FF40040FFF7AEFE7B89FB823B893B83E0
:101CDC00FB883B843B8E7B84BB8E032B1ED801A2DE
:101CEC0052F823F0011D00080B1D0008151D0008FB
:101CFC001F1D000800237B830023BB830FE0002300
:101D0C007B830123BB830AE002237B830023BB83F9
:101D1C0005E002237B830123BB8300E000BF00238B
:101D2C00BB820023FB830723BB8407F114031946F2
:101D3C00F86802F0E1FB0121F86802F0E5FD0121F1
:101D4C00F86802F011FD00BF2837BD4680BD00BF0A
:101D5C000030014000380040003C004080B500AF2E
:101D6C000021802000F01AF80246094B1A6000216D
:101D7C00802000F013F80246064B1A6000218020E8
:101D8C0000F00CF80246044B1A6000BF80BD00BF87
:101D9C002C090020280900202409002080B584B0DB
:101DAC0000AF03460A46FB711346BB71062003F0D5
:101DBC00F9F80346FB60FB68FA791A70FB68BA798C
:101DCC001A71FB6800225A71FB681022DA70FB68EA
:101DDC0020229A70FB68BF225A70FB681846103795
:101DEC00BD4680BD80B485B000AF78600B46FB70FB
:101DFC001346BB707B68FA781A707B681A787B681C
:101E0C001B791343DAB27B689B781343DAB27B6895
:101E1C00DB781343DAB27B685B791343FB73BB78D3
:101E2C00402B04D1FB7B43F04003DBB208E0BB78D2
:101E3C00BF2B04D1FB7B23F04003DBB200E000237B
:101E4C0018461437BD4680BC704700BF80B483B0C1
:101E5C0000AF78607B681A684FF6FE7313407A689F
:101E6C0013607B6800221A607B6800225A607B68D2
:101E7C0000229A607B680022DA607B68434A9342B6
:101E8C0006D1434A424B5B6843F00F03536077E043
:101E9C007B68404A934206D13D4A3D4B5B6843F018
:101EAC00F00353606CE07B683B4A934206D1384A9E
:101EBC00374B5B6843F47063536061E07B68374A6F
:101ECC00934206D1324A324B5B6843F47043536001
:101EDC0056E07B68324A934206D12D4A2C4B5B6804
:101EEC0043F4702353604BE07B682E4A934206D137
:101EFC00274A274B5B6843F47003536040E07B68D0
:101F0C00294A934206D1224A214B5B6843F0706305
:101F1C00536035E07B68254A934206D1244A244B12
:101F2C005B6843F00F0353602AE07B68214A9342BD
:101F3C0006D11F4A1E4B5B6843F0F00353601FE051
:101F4C007B681D4A934206D1194A194B5B6843F4CE
:101F5C007063536014E07B68184A934206D1144AAC
:101F6C00134B5B6843F47043536009E07B68144A7D
:101F7C00934205D10E4A0E4B5B6843F470235360B9
:101F8C0000BF0C37BD4680BC704700BF0800024044
:101F9C00000002401C00024030000240440002409D
:101FAC00580002406C0002408000024008040240CD
:101FBC00000402401C04024030040240440402406D
:101FCC005804024080B485B000AF786039600023BB
:101FDC00FB607B681B68FB60FB6823F4FF4323F00A
:101FEC007003FB603B689A683B681B6A1A433B684A
:101FFC001B691A433B685B691A433B689B691A432C
:10200C003B68DB691A433B685B6A1A433B689B6A13
:10201C001343FA681343FB607B68FA681A603B68E9
:10202C00DA687B685A603B681A687B689A603B6820
:10203C005A687B68DA6000BF1437BD4680BC7047B5
:10204C0080B483B000AF78607B6800221A607B6834
:10205C0000225A607B6800229A607B680022DA605A
:10206C007B6800221A617B6800225A617B6800221F
:10207C009A617B680022DA617B6800221A627B68B5
:10208C0000225A627B6800229A6200BF0C37BD4660
:10209C0080BC704780B483B000AF78600B46FB7097
:1020AC00FB78002B06D07B681B6843F001027B6831
:1020BC001A6006E07B681A684FF6FE7313407A6864
:1020CC00136000BF0C37BD4680BC704780B485B030
:1020DC0000AFF860B9601346FB71FB79002B06D09A
:1020EC00FB681A68BB681A43FB681A6006E0FB6859
:1020FC001A68BB68DB431A40FB681A6000BF1437D0
:10210C00BD4680BC704700BF80B483B000AF786020
:10211C000B467B807A887B685A6000BF0C37BD46C3
:10212C0080BC704780B483B000AF78607B685B681C
:10213C009BB218460C37BD4680BC704780B485B046
:10214C0000AF78600023FB730023BB607B6803F057
:10215C008053002B03D00B4B1B68BB6002E00A4B77
:10216C001B68BB60BA687B681340002B02D001234C
:10217C00FB7301E00023FB73FB7B18461437BD4651
:10218C0080BC7047000402400000024080B483B061
:10219C0000AF78607B6803F08053002B03D0064AB5
:1021AC007B68536002E0054A7B68536000BF0C37C4
:1021BC00BD4680BC704700BF0004024000000240D6
:1021CC0080B485B000AF78600023FB730023BB6044
:1021DC007B6803F08053002B03D00B4B1B68BB6058
:1021EC0002E00A4B1B68BB60BA687B681340002B8B
:1021FC0002D00123FB7301E00023FB73FB7B184629
:10220C001437BD4680BC70470004024000000240F9
:10221C0080B483B000AF78607B6803F08053002BF0
:10222C0003D0064A7B68536002E0054A7B68536022
:10223C0000BF0C37BD4680BC704700BF0004024095
:10224C000000024080B500AF154A154B1B6843F0E7
:10225C00010313601249124B5A68124B13404B6026
:10226C000F4A0F4B1B6823F0847323F480331360E5
:10227C000B4A0B4B1B6823F480231360084A084B52
:10228C005B6823F4FE035360054B4FF41F029A6006
:10229C0000F078F8044B4FF000629A6000BF80BDEC
:1022AC00001002400000FFF800ED00E080B485B0A3
:1022BC0000AF0023FB600023BB6000237B602C4B32
:1022CC005B6803F00C03FB60FB68042B07D0082B46
:1022DC0009D0002B33D1274B274A1A6033E0254B0A
:1022EC00254A1A602FE0224B5B6803F47013BB6025
:1022FC001F4B5B6803F480337B60BB689B0C023321
:10230C00BB607B68002B06D1BB681C4A02FB03F345
:10231C00184A136017E0164B5B6803F40033002B6C
:10232C0006D0BB68154A02FB03F3124A13600AE09D
:10233C00BB68114A02FB03F30E4A136003E00D4B1A
:10234C000D4A1A6000BF0A4B5B6803F0F0031B09CF
:10235C000B4AD35CDBB2FB60064B1A68FB6822FAB3
:10236C0003F3044A136000BF1437BD4680BC7047AA
:10237C00001002401400002000127A0000093D00F9
:10238C001800002080B500AF00F002F800BF80BD3F
:10239C0080B483B000AF00237B6000233B60394ADC
:1023AC00384B1B6843F480331360364B1B6803F4C3
:1023BC0000333B607B6801337B603B68002B03D1AF
:1023CC007B68B3F5A06FF0D12E4B1B6803F4003380
:1023DC00002B02D001233B6001E000233B603B68F3
:1023EC00012B49D1284A284B1B6843F0100313607A
:1023FC00254A254B1B6823F007031360224A224B06
:10240C001B6843F0020313601E4A1E4B5B6853604B
:10241C001C4A1C4B5B6853601A4A1A4B5B6853602E
:10242C00184A184B5B6823F47C135360154A154B00
:10243C005B6843F4E8135360124A124B1B6843F079
:10244C008073136000BF0F4B1B6803F00073002BED
:10245C00F9D00C4A0B4B5B6823F003035360094A19
:10246C00084B5B6843F00203536000BF054B5B688D
:10247C0003F00C03082BF9D100BF0C37BD4680BC10
:10248C00704700BF001002400020024080B586B0AB
:10249C0000AFF8607A603B600B467B81FB68284A92
:1024AC00934204D101210420FFF7BCFA35E0FB680C
:1024BC00244A934204D101210820FFF7B3FA2CE0FF
:1024CC00FB68214A934204D101211020FFF7AAFA9C
:1024DC0023E0FB681D4A934204D101212020FFF721
:1024EC00A1FA1AE0FB681A4A934204D10121402058
:1024FC00FFF798FA11E0FB68164A934204D10121C8
:10250C008020FFF78FFA08E0FB68134A934204D14E
:10251C0001214FF48070FFF785FA7B89BB827B68C1
:10252C00DBB2BB753B68DBB2FB7507F114031946D4
:10253C00F868FEF733FD00BF1837BD4680BD00BFFD
:10254C0000080140000C0140001001400014014043
:10255C0000180140001C01400020014080B582B0F1
:10256C0000AF78607B68784A93420AD101214FF41E
:10257C000060FFF793FA00214FF40060FFF78EFA2A
:10258C00DEE07B68B3F1804F08D101210120FFF719
:10259C00A3FA00210120FFF79FFAD1E07B686B4A78
:1025AC00934208D101210220FFF796FA0021022064
:1025BC00FFF792FAC4E07B68654A934208D1012187
:1025CC000420FFF789FA00210420FFF785FAB7E011
:1025DC007B68604A934208D101210820FFF77CFAFE
:1025EC0000210820FFF778FAAAE07B685A4A934248
:1025FC0008D101211020FFF76FFA00211020FFF7FE
:10260C006BFA9DE07B68554A934208D1012120204A
:10261C00FFF762FA00212020FFF75EFA90E07B685A
:10262C004F4A93420AD101214FF40050FFF736FA7A
:10263C0000214FF40050FFF731FA81E07B68494AE2
:10264C0093420AD101214FF40020FFF727FA002111
:10265C004FF40020FFF722FA72E07B68424A934263
:10266C000AD101214FF48010FFF718FA00214FF422
:10267C008010FFF713FA63E07B683C4A93420AD15F
:10268C0001214FF40010FFF709FA00214FF400105C
:10269C00FFF704FA54E07B68354A934208D10121D4
:1026AC004020FFF719FA00214020FFF715FA47E008
:1026BC007B68304A934208D101218020FFF70CFA45
:1026CC0000218020FFF708FA3AE07B682A4A9342FF
:1026DC000AD101214FF48070FFF7FEF900214FF46D
:1026EC008070FFF7F9F92BE07B68244A93420AD1FA
:1026FC0001214FF48030FFF7D1F900214FF48030E5
:10270C00FFF7CCF91CE07B681D4A93420AD10121EA
:10271C004FF40030FFF7C2F900214FF40030FFF7FF
:10272C00BDF90DE07B68174A934209D101214FF4A2
:10273C008020FFF7B3F900214FF48020FFF7AEF9AA
:10274C0000BF0837BD4680BD002C0140000400408E
:10275C0000080040000C0040001000400014004035
:10276C0000340140004C0140005001400054014035
:10277C0000180040001C00400020004000400140B8
:10278C00004401400048014080B485B000AF78603F
:10279C0039600023FB817B681B88FB817B682E4A98
:1027AC00934213D07B682D4A93420FD07B68B3F1D0
:1027BC00804F0BD07B682A4A934207D07B68294A0A
:1027CC00934203D07B68284A934208D1FB8923F0BB
:1027DC007003FB813B685A88FB891343FB817B6840
:1027EC00224A93420CD07B68214A934208D0FB8941
:1027FC0023F44073FB813B68DA88FB891343FB812C
:10280C007B68FA891A803B689A887B689A853B6852
:10281C001A887B681A857B680F4A93420FD07B68B5
:10282C000E4A93420BD07B68124A934207D07B68C6
:10283C00114A934203D07B68104A934204D13B68FF
:10284C001B7A9AB27B681A867B6801229A8200BF37
:10285C001437BD4680BC7047002C01400034014049
:10286C000004004000080040000C00400010004034
:10287C000014004000400140004401400048014069
:10288C0080B485B000AF7860396000237B81002371
:10289C00FB810023BB817B681B8C9BB223F0010363
:1028AC009AB27B681A847B681B8CFB817B689B8843
:1028BC00BB817B681B8B7B817B8923F070037B81C5
:1028CC007B8923F003037B813B681A887B89134344
:1028DC007B81FB8923F00203FB813B681A89FB890E
:1028EC001343FB813B685A88FB891343FB817B684C
:1028FC00244A93420FD07B68234A93420BD07B68C7
:10290C00224A934207D07B68214A934203D07B68CA
:10291C00204A934223D1FB8923F00803FB813B68B7
:10292C005A89FB891343FB81FB8923F00403FB8148
:10293C003B689A88FB891343FB81BB8923F4807322
:10294C00BB81BB8923F40073BB813B689A89BB892B
:10295C001343BB813B68DA89BB891343BB817B681A
:10296C00BA899A807B687A891A833B68DA887B6893
:10297C009A867B68FA891A8400BF1437BD4680BCDE
:10298C00704700BF002C0140003401400040014062
:10299C00004401400048014080B485B000AF78602D
:1029AC00396000237B810023FB810023BB817B6882
:1029BC001B8C9BB223F010039AB27B681A847B6841
:1029CC001B8CFB817B689B88BB817B681B8B7B8111
:1029DC007B8923F4E0437B817B8923F440737B81E7
:1029EC003B681B881B029AB27B8913437B81FB8952
:1029FC0023F02003FB813B681B891B019AB2FB89E6
:102A0C001343FB813B685B881B019AB2FB89134320
:102A1C00FB817B68224A934203D07B68214A934214
:102A2C002BD1FB8923F08003FB813B685B891B0165
:102A3C009AB2FB891343FB81FB8923F04003FB8192
:102A4C003B689B881B019AB2FB891343FB81BB89B2
:102A5C0023F48063BB81BB8923F40063BB813B6897
:102A6C009B899B009AB2BB891343BB813B68DB8972
:102A7C009B009AB2BB891343BB817B68BA899A804D
:102A8C007B687A891A833B68DA887B681A877B684B
:102A9C00FA891A8400BF1437BD4680BC704700BF4A
:102AAC00002C01400034014080B485B000AF786048
:102ABC00396000237B810023FB810023BB817B6871
:102ACC001B8C9BB223F480739AB27B681A847B684C
:102ADC001B8CFB817B689B88BB817B689B8B7B8180
:102AEC007B8923F070037B817B8923F003037B813B
:102AFC003B681A887B8913437B81FB8923F4007321
:102B0C00FB813B681B891B029AB2FB891343FB8137
:102B1C003B685B881B029AB2FB891343FB817B6881
:102B2C00224A934203D07B68214A93422BD1FB89E2
:102B3C0023F40063FB813B685B891B029AB2FB891F
:102B4C001343FB81FB8923F48063FB813B689B88E7
:102B5C001B029AB2FB891343FB81BB8923F480537C
:102B6C00BB81BB8923F40053BB813B689B891B0150
:102B7C009AB2BB891343BB813B68DB891B019AB2B8
:102B8C00BB891343BB817B68BA899A807B687A893D
:102B9C009A833B68DA887B689A877B68FA891A84FF
:102BAC0000BF1437BD4680BC704700BF002C0140ED
:102BBC000034014080B485B000AF786039600023E8
:102BCC00BB8100237B810023FB817B681B8C9BB228
:102BDC0023F480539AB27B681A847B681B8C7B81AC
:102BEC007B689B88FB817B689B8BBB81BB8923F4B7
:102BFC00E043BB81BB8923F44073BB813B681B88DA
:102C0C001B029AB2BB891343BB817B8923F400530B
:102C1C007B813B681B891B039AB27B8913437B81A5
:102C2C003B685B881B039AB27B8913437B817B686F
:102C3C00124A934203D07B68114A93420AD1FB8912
:102C4C0023F48043FB813B689B899B019AB2FB89EF
:102C5C001343FB817B68FA899A807B68BA899A83D3
:102C6C003B68DA887B68A3F840207B687A891A84F1
:102C7C0000BF1437BD4680BC704700BF002C01401C
:102C8C000034014080B582B000AF786039603B6899
:102C9C001B88002B0FD13B6859883B689A883B688E
:102CAC001B89786801F084F93B68DB8819467868E1
:102CBC0001F03EF836E03B681B88042B0FD13B68D3
:102CCC0059883B689A883B681B89786801F0E0F961
:102CDC003B68DB881946786801F046F822E03B68CF
:102CEC001B88082B0FD13B6859883B689A883B6836
:102CFC001B89786801F046FA3B68DB8819467868CE
:102D0C0001F050F80EE03B6859883B689A883B68A4
:102D1C001B89786801F0ACFA3B68DB881946786847
:102D2C0001F05CF800BF0837BD4680BD80B584B0AB
:102D3C0000AF786039600023FB810123BB813B68C5
:102D4C005B88002B02D10223FB8101E00023FB8175
:102D5C003B689B88012B02D10223BB8101E001233C
:102D6C00BB813B681B88002B1CD13B6859883B6896
:102D7C009A883B681B89786801F01AF93B68DB88F4
:102D8C001946786800F0D4FF3B681B89BA89F98929
:102D9C00786801F07DF93B68DB881946786800F0AB
:102DAC00E3FF1BE03B6859883B689A883B681B89AA
:102DBC00786801F06DF93B68DB881946786800F09B
:102DCC00D3FF3B681B89BA89F989786801F0F0F860
:102DDC003B68DB881946786800F0AAFF00BF103703
:102DEC00BD4680BD80B483B000AF786039603B686D
:102DFC001A883B685B8813439AB23B689B881343E1
:102E0C009AB23B68DB8813439AB23B681B89134325
:102E1C009AB23B685B8913439AB23B689B89134314
:102E2C009AB27B68A3F8442000BF0C37BD4680BC27
:102E3C00704700BF80B483B000AF78607B684FF6FA
:102E4C00FF729A807B6800221A807B680022DA80ED
:102E5C007B6800225A807B6800221A7200BF0C37F4
:102E6C00BD4680BC704700BF80B483B000AF7860B3
:102E7C007B6800221A807B6800225A807B680022C3
:102E8C009A807B680022DA807B6800221A817B683A
:102E9C0000225A817B6800229A817B680022DA81A9
:102EAC0000BF0C37BD4680BC704700BF80B483B0F8
:102EBC0000AF78607B6800221A807B6800225A8001
:102ECC007B6801229A807B680022DA807B68002272
:102EDC001A8100BF0C37BD4680BC704780B483B0EC
:102EEC0000AF78607B6800221A807B6800225A80D1
:102EFC007B6800229A807B680022DA807B68002243
:102F0C001A817B6800225A817B6800229A8100BF5B
:102F1C000C37BD4680BC704780B483B000AF78607E
:102F2C000B46FB70FB78002B08D07B681B889BB290
:102F3C0043F001039AB27B681A8007E07B681B8818
:102F4C009BB223F001039AB27B681A8000BF0C3746
:102F5C00BD4680BC704700BF80B483B000AF7860C2
:102F6C000B46FB70FB78002B0CD07B68B3F844301D
:102F7C009BB26FEA43436FEA53439AB27B68A3F860
:102F8C00442009E07B68B3F844309BB2C3F30E03D2
:102F9C009AB27B68A3F8442000BF0C37BD4680BCB6
:102FAC00704700BF80B483B000AF78600B467B8065
:102FBC0013467B707B78002B08D07B689B899AB278
:102FCC007B8813439AB27B689A8109E07B689B8962
:102FDC009AB27B88DB439BB213409AB27B689A818E
:102FEC0000BF0C37BD4680BC704700BF80B483B0B7
:102FFC0000AF78600B467B807B687A889A8200BF32
:10300C000C37BD4680BC704780B483B000AF78608D
:10301C000B467B8013463B807A883B8813439AB2DD
:10302C007B68A3F8482000BF0C37BD4680BC7047B6
:10303C0080B483B000AF78600B467B8013467B7006
:10304C007B78002B08D07B689B899AB27B881343D2
:10305C009AB27B689A8109E07B689B899AB27B88DB
:10306C00DB439BB213409AB27B689A8100BF0C374A
:10307C00BD4680BC704700BF80B483B000AF7860A1
:10308C007B681B899BB223F007039AB27B681A8179
:10309C0000BF0C37BD4680BC704700BF80B582B006
:1030AC0000AF78600B467B807B881946786800F00F
:1030BC00E5F87B681B899BB243F007039AB27B68E7
:1030CC001A8100BF0837BD4680BD00BF80B584B0F3
:1030DC0000AFF860084611461A4603467B810B4642
:1030EC003B811346FB807B89602B06D1FB88398999
:1030FC000122F86800F0CCFF05E0FB883989012239
:10310C00F86800F055FF7B891946F86800F0B6F8AE
:10311C00FB681B899BB243F007039AB2FB681A81C8
:10312C0000BF1037BD4680BD80B586B000AFF860DB
:10313C00084611461A4603467B810B463B811346D3
:10314C00FB800023FB82FB883A897989F86800F0C0
:10315C003BF8FB681B89FB82FB8A23F00703FB828D
:10316C00FB8A43F00703FB82FB8A23F07003FB828C
:10317C00FB8A43F07003FB82FB68FA8A1A8100BF5A
:10318C001837BD4680BD00BF80B584B000AFF86075
:10319C00084611461A4603467B810B463B81134673
:1031AC00FB80FB883A897989F86800F00DF8FB6898
:1031BC001B899BB243F480439AB2FB681A8100BF0F
:1031CC001037BD4680BD00BF80B487B000AFF8603B
:1031DC00084611461A4603467B810B463B81134633
:1031EC00FB800023FB82FB681B89FB82FB8ADBB222
:1031FC00FB82FB881B029AB23B8913439AB27B89F0
:10320C0013439AB2FB8A1343FB82FB68FA8A1A8136
:10321C0000BF1C37BD4680BC704700BF80B483B074
:10322C0000AF78600B467B8013463B807B687A88C6
:10323C001A857B683A889A8200BF0C37BD4680BCE1
:10324C00704700BF80B485B000AF78600B467B80C0
:10325C000023FB817B681B88FB81FB8923F07003B7
:10326C00FB81FA897B881343FB817B68FA891A807E
:10327C0000BF1437BD4680BC704700BF80B485B01A
:10328C0000AF78600B467B800023FB817B681B8939
:10329C00FB81FB8923F07003FB81FA897B88134344
:1032AC00FB817B68FA891A8100BF1437BD4680BC4C
:1032BC00704700BF80B487B000AFF8600846114675
:1032CC001A4603467B810B463B811346FB80002349
:1032DC00FB820023BB8200237B82FB681B89FB8261
:1032EC00FB681B8BBB82FB681B8C7B82FB8A23F0ED
:1032FC000703FB82FA8A7B891343FB82BB8A23F484
:10330C00407323F00303BB82BB8A43F4807343F006
:10331C000103BB827B8A23F022037B82FB881B0187
:10332C009AB23B8913439AB27B8A13437B82FB6824
:10333C00FA8A1A81FB68BA8A1A83FB687A8A1A8419
:10334C0000BF1C37BD4680BC704700BF80B485B041
:10335C0000AF78600B467B800023FB817B681B8B66
:10336C00FB81FB8923F07003FB81FA897B88134373
:10337C00FB817B68FA891A8300BF1437BD4680BC79
:10338C00704700BF80B485B000AF78600B467B807F
:10339C000023FB817B681B8BFB81FB8923F4E043BF
:1033AC00FB817B881B029AB2FB891343FB817B68F0
:1033BC00FA891A8300BF1437BD4680BC704700BF22
:1033CC0080B485B000AF78600B467B800023FB8116
:1033DC007B689B8BFB81FB8923F07003FB81FA8953
:1033EC007B881343FB817B68FA899A8300BF14376F
:1033FC00BD4680BC704700BF80B485B000AF78601C
:10340C000B467B800023FB817B689B8BFB81FB89BC
:10341C0023F4E043FB817B881B029AB2FB891343A4
:10342C00FB817B68FA899A8300BF1437BD4680BC48
:10343C00704700BF80B483B000AF78600B46FB7060
:10344C00FB78002B08D07B681B889BB243F0800371
:10345C009AB27B681A8007E07B681B889BB223F0CA
:10346C0080039AB27B681A8000BF0C37BD4680BCC3
:10347C00704700BF80B483B000AF78600B46FB7020
:10348C00FB78002B08D07B689B889BB243F004032D
:10349C009AB27B689A8007E07B689B889BB223F08A
:1034AC0004039AB27B689A8000BF0C37BD4680BC7F
:1034BC00704700BF80B483B000AF78600B46FB70E0
:1034CC00FB78002B08D07B689B889BB243F00803E9
:1034DC009AB27B689A8007E07B689B889BB223F04A
:1034EC0008039AB27B689A8000BF0C37BD4680BC3B
:1034FC00704700BF80B483B000AF78600B46FB70A0
:10350C00FB78002B08D07B689B889BB243F00103AF
:10351C009AB27B689A8007E07B689B889BB223F009
:10352C0001039AB27B689A8000BF0C37BD4680BC01
:10353C00704700BF80B485B000AF78600B467B80CD
:10354C000023FB817B681B8BFB81FB8923F0080329
:10355C00FB81FA897B881343FB817B68FA891A8388
:10356C0000BF1437BD4680BC704700BF80B485B027
:10357C0000AF78600B467B800023FB817B681B8B44
:10358C00FB81FB8923F40063FB817B881B029AB2CD
:10359C00FB891343FB817B68FA891A8300BF1437BC
:1035AC00BD4680BC704700BF80B485B000AF78606A
:1035BC000B467B800023FB817B689B8BFB81FB890B
:1035CC0023F00803FB81FA897B881343FB817B681A
:1035DC00FA899A8300BF1437BD4680BC704700BF80
:1035EC0080B485B000AF78600B467B800023FB81F4
:1035FC007B689B8BFB81FB8923F40063FB817B88BD
:10360C001B029AB2FB891343FB817B68FA899A836C
:10361C0000BF1437BD4680BC704700BF80B485B076
:10362C0000AF78600B467B800023FB817B681B8B93
:10363C00FB81FB8923F00403FB81FA897B8813430C
:10364C00FB817B68FA891A8300BF1437BD4680BCA6
:10365C00704700BF80B485B000AF78600B467B80AC
:10366C000023FB817B681B8BFB81FB8923F480632C
:10367C00FB817B881B029AB2FB891343FB817B681D
:10368C00FA891A8300BF1437BD4680BC704700BF4F
:10369C0080B485B000AF78600B467B800023FB8143
:1036AC007B689B8BFB81FB8923F00403FB81FA89EC
:1036BC007B881343FB817B68FA899A8300BF14379C
:1036CC00BD4680BC704700BF80B485B000AF786049
:1036DC000B467B800023FB817B689B8BFB81FB89EA
:1036EC0023F48063FB817B881B029AB2FB89134312
:1036FC00FB817B68FA899A8300BF1437BD4680BC76
:10370C00704700BF80B485B000AF78600B467B80FB
:10371C000023FB817B681B8BFB81FB8923F08003DF
:10372C00FB81FA897B881343FB817B68FA891A83B6
:10373C0000BF1437BD4680BC704700BF80B485B055
:10374C0000AF78600B467B800023FB817B681B8B72
:10375C00FB81FB89C3F30E03FB817B881B029AB2AE
:10376C00FB891343FB817B68FA891A8300BF1437EA
:10377C00BD4680BC704700BF80B485B000AF786098
:10378C000B467B800023FB817B689B8BFB81FB8939
:10379C0023F08003FB81FA897B881343FB817B68D0
:1037AC00FA899A8300BF1437BD4680BC704700BFAE
:1037BC0080B485B000AF78600B467B800023FB8122
:1037CC007B689B8BFB81FB89C3F30E03FB817B889E
:1037DC001B029AB2FB891343FB817B68FA899A839B
:1037EC0000BF1437BD4680BC704700BF80B485B0A5
:1037FC0000AF78600B467B800023FB817B681B8CC1
:10380C00FB81FB8923F00203FB81FA897B8813433C
:10381C00FB817B68FA891A8400BF1437BD4680BCD3
:10382C00704700BF80B485B000AF78600B467B80DA
:10383C000023FB817B681B8CFB81FB8923F0080335
:10384C00FB81FA897B881343FB817B68FA891A8494
:10385C0000BF1437BD4680BC704700BF80B485B034
:10386C0000AF78600B467B800023FB817B681B8C50
:10387C00FB81FB8923F02003FB817B881B019AB21F
:10388C00FB891343FB817B68FA891A8400BF1437C8
:10389C00BD4680BC704700BF80B485B000AF786077
:1038AC000B467B800023FB817B681B8CFB81FB8997
:1038BC0023F08003FB817B881B019AB2FB891343A5
:1038CC00FB817B68FA891A8400BF1437BD4680BC23
:1038DC00704700BF80B485B000AF78600B467B802A
:1038EC000023FB817B681B8CFB81FB8923F4007319
:1038FC00FB817B881B029AB2FB891343FB817B689B
:10390C00FA891A8400BF1437BD4680BC704700BFCB
:10391C0080B485B000AF78600B467B800023FB81C0
:10392C007B681B8CFB81FB8923F40063FB817B8808
:10393C001B029AB2FB891343FB817B68FA891A84B8
:10394C0000BF1437BD4680BC704700BF80B485B043
:10395C0000AF78600B467B800023FB817B681B8C5F
:10396C00FB81FB8923F40053FB817B881B039AB2F8
:10397C00FB891343FB817B68FA891A8400BF1437D7
:10398C00BD4680BC704700BF80B485B000AF786086
:10399C000B467B8013463B800023FB817B880122F6
:1039AC0002FA03F3FB817B681B8C9AB2FB89DB4325
:1039BC009BB213409AB27B681A847B681B8C9BB2B7
:1039CC001AB239887B8801FA03F31BB213431BB27A
:1039DC009AB27B681A8400BF1437BD4680BC70470E
:1039EC0080B485B000AF78600B467B8013463B807B
:1039FC000023FB817B88042202FA03F3FB817B68A2
:103A0C001B8C9AB2FB89DB439BB213409AB27B6846
:103A1C001A847B681B8C9BB21AB239887B8801FA9A
:103A2C0003F31BB213431BB29AB27B681A8400BF18
:103A3C001437BD4680BC704780B485B000AF786049
:103A4C000B467B8013463B800023FB6000237B816D
:103A5C007B68FB60FB681833FB607B88012202FAF1
:103A6C0003F37B817B681B8C9AB27B89DB439BB213
:103A7C0013409AB27B681A847B88002B02D07B8817
:103A8C00082B13D17B885B089BB21A46FB68134446
:103A9C00FB60FB68FA68126822F070021A60FB681F
:103AAC00FA6811683A880A431A6016E07B88043B6E
:103ABC009BB25B089BB21A46FB681344FB60FB6825
:103ACC00FA68126822F4E0421A60FB68FA6812681D
:103ADC003988090289B20A431A6000BF1437BD46FF
:103AEC0080BC704780B483B000AF78600B46FB702D
:103AFC00FB78002B08D07B681B889BB243F0020339
:103B0C009AB27B681A8007E07B681B889BB223F013
:103B1C0002039AB27B681A8000BF0C37BD4680BC8A
:103B2C00704700BF80B483B000AF78600B467B80D9
:103B3C007B88002B08D07B681B889BB243F0040366
:103B4C009AB27B681A8007E07B681B889BB223F0D3
:103B5C0004039AB27B681A8000BF0C37BD4680BC48
:103B6C00704700BF80B483B000AF78600B46FB7029
:103B7C00FB78002B08D07B689B889BB243F08003BA
:103B8C009AB27B689A8007E07B689B889BB223F093
:103B9C0080039AB27B689A8000BF0C37BD4680BC0C
:103BAC00704700BF80B483B000AF78600B467B8059
:103BBC007B681B889BB223F008039AB27B681A803F
:103BCC007B681B889AB27B8813439AB27B681A80F5
:103BDC0000BF0C37BD4680BC704700BF80B483B0BB
:103BEC0000AF78600B467B807B689B889BB223F090
:103BFC0070039AB27B689A807B689B889AB27B88A8
:103C0C0013439AB27B689A8000BF0C37BD4680BCC8
:103C1C00704700BF80B483B000AF78600B467B80E8
:103C2C007B681B899BB223F007039AB27B681A81CD
:103C3C007B681B899AB27B8813439AB27B681A8182
:103C4C0000BF0C37BD4680BC704700BF80B483B04A
:103C5C0000AF78600B467B807B681B899BB223F09E
:103C6C0080039AB27B681A817B681B899AB27B8825
:103C7C0013439AB27B681A8100BF0C37BD4680BCD7
:103C8C00704700BF80B483B000AF78600B467B8078
:103C9C007B687A889A8400BF0C37BD4680BC70471D
:103CAC0080B483B000AF78600B467B807B687A88E9
:103CBC009A8500BF0C37BD4680BC704780B483B07A
:103CCC0000AF78600B467B807B687A889A8600BF51
:103CDC000C37BD4680BC704780B483B000AF7860B1
:103CEC000B467B807B687A881A8700BF0C37BD46F1
:103CFC0080BC704780B483B000AF78600B467B808B
:103D0C007B687A889A8700BF0C37BD4680BC7047A9
:103D1C0080B483B000AF78600B467B807B687A8878
:103D2C00A3F8402000BF0C37BD4680BC704700BFD5
:103D3C0080B483B000AF78600B467B807B681B8BB4
:103D4C009BB223F00C039AB27B681A837B681B8BA3
:103D5C009AB27B8813439AB27B681A8300BF0C37E4
:103D6C00BD4680BC704700BF80B483B000AF7860A4
:103D7C000B467B807B681B8B9BB223F440639AB20F
:103D8C007B681A837B681B8B9AB27B881B029BB265
:103D9C0013439AB27B681A8300BF0C37BD4680BCB4
:103DAC00704700BF80B483B000AF78600B467B8057
:103DBC007B689B8B9BB223F00C039AB27B689A8333
:103DCC007B689B8B9AB27B8813439AB27B689A83ED
:103DDC0000BF0C37BD4680BC704700BF80B483B0B9
:103DEC0000AF78600B467B807B689B8B9BB223F487
:103DFC0040639AB27B689A837B689B8B9AB27B8870
:103E0C001B029BB213439AB27B689A8300BF0C3798
:103E1C00BD4680BC704700BF80B483B000AF7860F3
:103E2C000B467B807B681B889BB223F440739AB251
:103E3C007B681A807B681B889AB27B8813439AB282
:103E4C007B681A8000BF0C37BD4680BC704700BF32
:103E5C0080B483B000AF78607B689B8E9BB21846B1
:103E6C000C37BD4680BC704780B483B000AF78601F
:103E7C007B681B8F9BB218460C37BD4680BC7047C5
:103E8C0080B483B000AF78607B689B8F9BB2184680
:103E9C000C37BD4680BC704780B483B000AF7860EF
:103EAC007B68B3F840309BB218460C37BD4680BCDB
:103EBC00704700BF80B483B000AF78607B689B8C88
:103ECC009BB218460C37BD4680BC704780B483B09B
:103EDC0000AF78607B681B8D9BB218460C37BD46D3
:103EEC0080BC704780B485B000AF78600B467B8097
:103EFC000023FB737B681B8A9AB27B8813409BB2AE
:103F0C00002B02D00123FB7301E00023FB73FB7B2E
:103F1C0018461437BD4680BC704700BF80B483B0D0
:103F2C0000AF78600B467B807B88DB439AB27B6862
:103F3C001A8200BF0C37BD4680BC704780B485B078
:103F4C0000AF78600B467B800023FB730023BB81A2
:103F5C0000237B817B681B8A9AB27B881340BB81D0
:103F6C007B689B899AB27B8813407B81BB89002B31
:103F7C0005D07B89002B02D00123FB7301E00023C9
:103F8C00FB73FB7B18461437BD4680BC704700BFE3
:103F9C0080B483B000AF78600B467B807B88DB43BA
:103FAC009AB27B681A8200BF0C37BD4680BC704742
:103FBC0080B487B000AFF860084611461A46034635
:103FCC007B810B463B811346FB800023BB82002385
:103FDC00FB82FB681B8C9BB223F001039AB2FB683B
:103FEC001A84FB681B8BBB82FB681B8CFB82BB8A15
:103FFC0023F0F303BB82FB881B019AB23B8913436A
:10400C009AB2BB8A1343BB82FB681C4A934213D0FF
:10401C00FB681B4A93420FD0FB68B3F1804F0BD067
:10402C00FB68184A934207D0FB68174A934203D0A7
:10403C00FB68164A93420BD1FB8A23F00203FB82E6
:10404C007A89FB8A13439BB243F00103FB820AE09B
:10405C00FB8A23F00A03FB827A89FB8A13439BB207
:10406C0043F00103FB82FB68BA8A1A83FB68FA8A65
:10407C001A8400BF1C37BD4680BC7047002C014021
:10408C00003401400004004000080040000C0040D7
:10409C0080B487B000AFF860084611461A46034654
:1040AC007B810B463B811346FB800023BB820023A4
:1040BC00FB8200237B82FB681B8C9BB223F01003DA
:1040CC009AB2FB681A84FB681B8BBB82FB681B8C47
:1040DC00FB827B891B017B82BB8A23F440731B050B
:1040EC001B0DBB82FB881B039AB2BB8A1343BB829A
:1040FC003B891B029AB2BB8A1343BB82FB681C4AE6
:10410C00934213D0FB681B4A93420FD0FB68B3F168
:10411C00804F0BD0FB68184A934207D0FB68174AB4
:10412C00934203D0FB68164A93420BD1FB8A23F0CF
:10413C002003FB827A8AFB8A13439BB243F0100361
:10414C00FB820AE0FB8A23F0A003FB827A89FB8ABC
:10415C0013439BB243F01003FB82FB68BA8A1A83A9
:10416C00FB68FA8A1A8400BF1C37BD4680BC7047B6
:10417C00002C0140003401400004004000080040C5
:10418C00000C004080B487B000AFF86008461146C0
:10419C001A4603467B810B463B811346FB8000236A
:1041AC00BB820023FB8200237B82FB681B8C9BB2AF
:1041BC0023F480739AB2FB681A84FB689B8BBB82D6
:1041CC00FB681B8CFB827B891B027B82BB8A23F0E6
:1041DC00F303BB82FB881B019AB23B8913439AB24F
:1041EC00BB8A1343BB82FB681C4A934213D0FB6807
:1041FC001B4A93420FD0FB68B3F1804F0BD0FB6886
:10420C00184A934207D0FB68174A934203D0FB68C5
:10421C00164A93420BD1FB8A23F40073FB827A8AF1
:10422C00FB8A13439BB243F48073FB820AE0FB8A44
:10423C0023F42063FB827A89FB8A13439BB243F4F9
:10424C008073FB82FB68BA8A9A83FB68FA8A1A84A9
:10425C0000BF1C37BD4680BC704700BF002C01401E
:10426C00003401400004004000080040000C0040F5
:10427C0080B487B000AFF860084611461A46034672
:10428C007B810B463B811346FB800023BB820023C2
:10429C00FB8200237B82FB681B8C9BB223F4805334
:1042AC009AB2FB681A84FB689B8BBB82FB681B8CE5
:1042BC00FB827B891B037B82BB8A23F440731B0527
:1042CC001B0DBB823B891B029AB2BB8A1343BB8278
:1042DC00FB881B039AB2BB8A1343BB82FB681D4A43
:1042EC00934213D0FB681C4A93420FD0FB68B3F186
:1042FC00804F0BD0FB68194A934207D0FB68184AD1
:10430C00934203D0FB68174A93420BD1FB8A23F4E8
:10431C000053FB827A8AFB8A13439BB243F480538B
:10432C00FB820CE0FB8A23F400735B045B0CFB82C6
:10433C007A89FB8A13439BB243F48053FB82FB685C
:10434C00BA8A9A83FB68FA8A1A8400BF1C37BD4666
:10435C0080BC7047002C0140003401400004004038
:10436C0000080040000C004080B485B000AFF8603D
:10437C00B9607A603B6000BF1437BD4680BC7047A3
:10438C0080B500AF094B1B78DAB2094B1B78DBB256
:10439C009A4209D0064B1B78DBB2184600F04AF85B
:1043AC0003461A46024B1A7000BF80BD4C0C00200D
:1043BC003009002080B400AF0B4B1B78DAB20B4BEA
:1043CC001B78DBB29A4201D1002308E0074B1B7823
:1043DC00DBB21A462C2303FB02F3054A134418469E
:1043EC00BD4680BC704700BF4C0C0020300900203B
:1043FC003409002080B500AF0A4B1B78DAB20A4BA7
:10440C001A70094B1B78DBB2184600F013F8034600
:10441C001A46064B1A701C220021054800F0D2FCEB
:10442C0000BF80BD300900204C0C00204D0C00203A
:10443C00F808002080B483B000AF0346FB71FB7911
:10444C000133FB71FB79122B01D10023FB71FB793A
:10445C0018460C37BD4680BC704700BF80B483B093
:10446C0000AF0346FB71FB79002B01D11223FB71CA
:10447C00FB79013BFB71FB7918460C37BD4680BCC0
:10448C00704700BF80B582B000AF78607B68174A78
:10449C0093420AD101214FF48050FDF7FFFA00211D
:1044AC004FF48050FDF7FAFA1CE07B68104A9342F7
:1044BC000AD101214FF48040FDF70EFB00214FF48F
:1044CC008040FDF709FB0DE07B680A4A934209D155
:1044DC0001214FF40040FDF7FFFA00214FF400409A
:1044EC00FDF7FAFA00BF0837BD4680BD0030014029
:1044FC0000380040003C004080B485B000AF7860CC
:10450C0039600023FB817B681B88FB81FB8903F4EA
:10451C004153FB813B681A883B685B8813439AB212
:10452C003B689B8813439AB23B68DB8813439AB26F
:10453C003B681B8913439AB23B685B8913439AB25D
:10454C003B689B8913439AB23B68DB8913439AB24D
:10455C00FB891343FB817B68FA891A807B689B8BF0
:10456C009BB223F400639AB27B689A833B681A8AE5
:10457C007B681A8200BF1437BD4680BC704700BFF1
:10458C0080B58CB000AF7860396000237B84022347
:10459C00FB850023BB8501237B8500237B620023E5
:1045AC00FB617B689B8B9BB223F47B6323F00F0333
:1045BC009AB27B689A837B6802221A847B689B8BF5
:1045CC007B843B689B68022B04D10023BB850223B0
:1045DC00FB8555E03B689B88002B02D101237B8532
:1045EC0001E002237B857B683D4A934203D14FF463
:1045FC0000337B6202E04FF480237B6207F10803F7
:10460C001846FDF741F9BB68FB613B68DB88B3F5E5
:10461C00007F0FD1FB691A0A13469B0013445B0001
:10462C001A463B689B68B2FBF3F39BB205339BB213
:10463C007B6212E07B8D5B011A46FB69B3FBF2F2E5
:10464C0013469B0013445B001A463B689B68B2FB05
:10465C00F3F39BB205339BB27B627B6A214AA2FBCC
:10466C000323DB087B627B6A9BB203F00103BB85EF
:10467C00BB8D7A6AD31A5B08FB85BB8D1B02BB858D
:10468C00FB8D012B02D9FB8DFF2B03D90223FB855C
:10469C000023BB853B68DA88BB8D13439AB2FB8D34
:1046AC0013439AB27B681A843B681A883B68598812
:1046BC003B6898883B689B8903439BB20B439BB236
:1046CC0013439AB27B8C13439BB243F400637B84F9
:1046DC007B687A8C9A8300BF3037BD4680BD00BFA3
:1046EC0000380040CDCCCCCC80B483B000AF786027
:1046FC007B6800221A807B6800225A807B6800222B
:10470C009A807B680022DA807B6800221A817B68A1
:10471C0000225A817B6800229A817B680022DA8110
:10472C007B6807221A8200BF0C37BD4680BC7047DD
:10473C0080B483B000AF78607B6800221A807B68FD
:10474C0000225A807B6800229A807B680022DA80E3
:10475C007B6802229A607B6800229A8100BF0C372A
:10476C00BD4680BC704700BF80B483B000AF78609A
:10477C000B46FB70FB78002B08D07B681B889BB228
:10478C0043F040039AB27B681A8007E07B681B8871
:10479C009BB223F040039AB27B681A8000BF0C379F
:1047AC00BD4680BC704700BF80B483B000AF78605A
:1047BC000B46FB70FB78002B08D07B689B8B9BB265
:1047CC0043F480639AB27B689A8307E07B689B8B87
:1047DC009BB223F480639AB27B689A8300BF0C3738
:1047EC00BD4680BC704700BF80B485B000AF786018
:1047FC000B46FB701346BB700023FB810023BB816F
:10480C00FB781B09DBB2FB81FB89012202FA03F363
:10481C00BB81BB78002B08D07B689B889AB2BB8984
:10482C0013439AB27B689A8009E07B689B889AB2A2
:10483C00BB89DB439BB213409AB27B689A8000BF62
:10484C001437BD4680BC704780B483B000AF78602D
:10485C000B467B8013467B707B78002B08D07B68E3
:10486C009B889AB27B8813439AB27B689A8009E042
:10487C007B689B889AB27B88DB439BB213409AB2CD
:10488C007B689A8000BF0C37BD4680BC704700BF68
:10489C0080B483B000AF78600B467B807B687A88ED
:1048AC009A8100BF0C37BD4680BC704780B483B082
:1048BC0000AF78607B689B899BB218460C37BD466D
:1048CC0080BC704780B483B000AF78600B467B80AF
:1048DC007B884FF6FF62934208D07B681B889BB2A3
:1048EC0043F480739AB27B681A8007E07B681B885C
:1048FC009BB223F480739AB27B681A8000BF0C378A
:10490C00BD4680BC704700BF80B483B000AF7860F8
:10491C000B46FB70FB78002B08D07B689B889BB206
:10492C0043F004039AB27B689A8007E07B689B880B
:10493C009BB223F004039AB27B689A8000BF0C37B9
:10494C00BD4680BC704700BF80B483B000AF7860B8
:10495C000B467B807B681B889BB223F400639AB266
:10496C007B681A807B681B889AB27B8813439AB247
:10497C007B681A8000BF0C37BD4680BC704700BFF7
:10498C0080B483B000AF78607B681B889BB243F423
:10499C0080539AB27B681A8000BF0C37BD4680BC2E
:1049AC00704700BF80B483B000AF78600B46FB70DB
:1049BC00FB78002B08D07B681B889BB243F4005318
:1049CC009AB27B681A8007E07B681B889BB223F441
:1049DC0000539AB27B681A8000BF0C37BD4680BC6E
:1049EC00704700BF80B485B000AF78600B46FB7099
:1049FC000023FB81FB78012B03D07B681B8BFB8195
:104A0C0002E07B689B8AFB81FB8918461437BD4604
:104A1C0080BC704780B483B000AF78607B681B8A21
:104A2C009BB218460C37BD4680BC704780B483B02F
:104A3C0000AF78600B467B807B88B3F5804F08D144
:104A4C007B681B889BB243F480439AB27B681A80C4
:104A5C0007E07B681B889BB223F480439AB27B6887
:104A6C001A8000BF0C37BD4680BC704780B485B03F
:104A7C0000AF78600B467B800023FB737B681B893F
:104A8C009AB27B8813409BB2002B02D00123FB739C
:104A9C0001E00023FB73FB7B18461437BD4680BC3A
:104AAC00704700BF80B483B000AF78600B467B804A
:104ABC007B88DB439AB27B681A8100BF0C37BD46FA
:104ACC0080BC704780B485B000AF78600B46FB703B
:104ADC000023FB730023BB8100237B8100233B81DC
:104AEC00FB7803F00F03012202FA03F3BB81FB787E
:104AFC001B09DBB27B817B89012202FA03F37B81E8
:104B0C007B689B889AB27B8913403B817B681B89AD
:104B1C009AB2BB8913409BB2002B05D03B89002B6A
:104B2C0002D00123FB7301E00023FB73FB7B1846CF
:104B3C001437BD4680BC704780B485B000AF786038
:104B4C000B46FB700023FB81FB7803F00F03012263
:104B5C0002FA03F3FB81FB89DB439AB27B681A816F
:104B6C0000BF1437BD4680BC704700BF80B485B011
:104B7C0000AF78600023FB6002E0FB680133FB6050
:104B8C007B6842F2107202FB03F2FB689A42F4DC7F
:104B9C0000BF1437BD4680BC704700BF80B500AF66
:104BAC0000F0DAF800F0AAF800F06EF8FDF7D6F88D
:104BBC0000F006F800F052F800F08AF8FEE700BFAB
:104BCC0080B500AF214B1B68BF2280211846FDF732
:104BDC0009F903461A461E4B1A701E4B1B68BF225E
:104BEC0080211846FDF7FEF803461A46184B5A70FA
:104BFC00194B1B68BF2280211846FDF7F3F80346BA
:104C0C001A46134B9A70114B1B6840228021184690
:104C1C00FDF7E8F803461A460D4BDA700D4B1B688E
:104C2C00402280211846FDF7DDF803461A46084B52
:104C3C001A71094B1B68402280211846FDF7D2F8E7
:104C4C0003461A46024B5A7100BF80BD2C09002046
:104C5C0018090020280900202409002080B400AF86
:104C6C00074BDA78074B1A70054B1A79054B5A70BB
:104C7C00034B5A79034B9A7000BFBD4680BC7047FA
:104C8C00180900202009002080B586B006AF01224B
:104C9C0002210B48FFF7D8FD0A4A00230493002396
:104CAC000393002302930023019303230093102307
:104CBC0005490648FCF75AF800BFBD4680BD00BF49
:104CCC0000300140200900200C300140300002402F
:104CDC0080B582B002AF0023009345F6C05300228A
:104CEC0040F2DC514FF08040FBF7DAFE01214FF02F
:104CFC008040FEF711F900BFBD4680BD80B582B083
:104D0C0002AF1023032210211148FDF7BFFB18231B
:104D1C00032220210E48FDF7B9FB48230022402135
:104D2C000B48FDF7B3FB1823032280210848FDF73D
:104D3C00ADFB0023019380230093002300224FF44A
:104D4C0082710448FCF796FF00BFBD4680BD00BFD2
:104D5C00000801400030014080B500AF142303224D
:104D6C004FF400510248FDF791FB00BF80BD00BF1E
:104D7C000010014070B50F4E0F4D761BB61018BFCA
:104D8C00002405D0013455F8043B9847A642F9D1CC
:104D9C000A4E0B4D00F006FD761BB61018BF002412
:104DAC0006D0013455F8043B9847A642F9D170BDA2
:104DBC0070BD00BFD0570008D0570008D857000866
:104DCC00D057000870B4840746D0541E002A41D036
:104DDC00CDB2034602E0621EE4B3144603F8015B55
:104DEC009A07F8D1032C2ED9CDB245EA05250F2C04
:104DFC0045EA054519D9264603F11002103E0F2E3F
:104E0C0042F8105C42F80C5C42F8085C42F8045C16
:104E1C0002F11002F2D8A4F1100222F00F0204F0F9
:104E2C000F041032032C13440DD91E462246043AAB
:104E3C00032A46F8045BFAD8221F22F0030204323C
:104E4C00134404F003042CB1C9B21C4403F8011B35
:104E5C00A342FBD170BC704714460346C2E700BFA7
:104E6C00024B13B1024800F005B870470000000077
:104E7C008D4E0008002301461A46184600F014B85F
:104E8C0038B5074D074C2C1BA41005D0013C55F828
:104E9C00043D9847002CF9D1BDE8384000F088BC9F
:104EAC00DC570008D85700082DE9F047254C06467A
:104EBC0025688846D5F8484192469946C4B360683F
:104ECC001F2817DC411C76B104EB8003C3F888A0C3
:104EDC00D4F88851012282401543022EC4F888511F
:104EEC00C3F808911ED0831C6160002044F8238015
:104EFC00BDE8F087144B03B34FF4C87000F052F8C0
:104F0C000446D0B1D5F84831002784E888003846EB
:104F1C00C5F848410121C4F88871C4F88C71002E81
:104F2C00E1D0D1E7D4F88C311A43C4F88C21DAE7FC
:104F3C0005F5A674C5F84841C1E74FF0FF30BDE850
:104F4C00F08700BFCC570008B14F0008002103E0E8
:104F5C000B4B5B58435004310A480B4B42189A4296
:104F6C00F6D30A4A02E0002342F8043B084B9A426B
:104F7C00F9D3FDF767F9FFF7FDFEFFF70FFE70475A
:104F8C00DC570008000000206408002064080020A2
:104F9C00600C0020FEE70000014B1868704700BF52
:104FAC0050040020024B0146186800F003B800BF03
:104FBC00500400202DE9F04F01F10B05162D83B0A4
:104FCC00064640F2A08035F0070500F1C080A942EA
:104FDC0000F2BD8000F09AFAB5F5FC7FC0F090822B
:104FEC006B0A00F0BB80042B00F27781A80900F15A
:104FFC00390E4FEA4E013830BE4F07EB81014C6839
:10500C000839A14207D1AEE0002A80F2AE80E468F4
:10501C00A14200F0A880636823F003035A1B0F2AF7
:10502C00F2DDB4493C6901F1080E744500F0A88129
:10503C00636823F003035A1B0F2A00F38E81002AA6
:10504C00C1F814E0C1F810E080F29380B3F5007F52
:10505C0080F05C81DB084A684FEAA3094FF0010C31
:10506C00013351F833800CFA09F901EBC30C49EA0E
:10507C000202ACF1080CC4F80CC0C4F808804A60F9
:10508C0041F83340C8F80C40831001249C409442F2
:10509C007CD8144206D120F003006400144200F1C5
:1050AC000400FAD007EBC009CC468046DCF80C10A3
:1050BC008C4507D166E1002A80F27481C9688C4561
:1050CC0000F060814B6823F003035A1B0F2AF2DDBA
:1050DC000C46CB6854F808CF45F00108C1F80480A1
:1050EC000D4442F00101CCF80C303046C3F808C036
:1050FC007D613D61C5F80CE0C5F808E06960AA5017
:10510C0000F006FA1FE0102921D800F0FFF9102555
:10511C0006230220774F07EB83035C68A3F1080298
:10512C00944200F038816368E16823F00303234460
:10513C005A68A56842F00102E96030468D605A60F9
:10514C0000F0E6F90834204603B0BDE8F08F0024E7
:10515C0020460C23336003B0BDE8F08F80214FF064
:10516C00400E3F2048E770465BE723445A68E168ED
:10517C00DFE723445A68304642F001025A60083493
:10518C0000F0C6F9204603B0BDE8F08FBC68636838
:10519C0023F00308A84504D3C5EB08030F2B00F339
:1051AC008C80554BDFF860911A68D9F800302A448E
:1051BC00013304EB080A00F0608102F580520F32D3
:1051CC0022F47F6222F00F0211463046019200F069
:1051DC00A1F9B0F1FF3F8346019A00F05881824556
:1051EC0000F2FC80454BDA4519681144196000F057
:1051FC005381D9F80000DFF810E101301BBFCAEB76
:10520C000B0A5144CEF800B019601BF0070100F0F6
:10521C001781C1F10800C1F58051834408315A440B
:10522C00C2F30B02C2EB010949463046019300F070
:10523C0071F9431C019B00F03F81CBEB00024A4407
:10524C0042F001021968BC424944C7F808B0196021
:10525C00CBF80420DFF8A49016D0B8F10F0F40F271
:10526C00FD806268A8F10C0323F0070302F0010231
:10527C00E0184FF0050E1A430F2B6260C0F804E0E3
:10528C00C0F808E000F21C811D4BBC681A68914202
:10529C0088BF19601B4B1A689142626888BF1960FD
:1052AC0022F003029542A2EB050301D80F2B04DC7C
:1052BC00304600F02DF9002445E745F0010243F09B
:1052CC000103254462603046BD6008346B6000F019
:1052DC001FF9204603B0BDE8F08F142B71D9542B65
:1052EC0000F2A480280B00F16F0E4FEA4E016E30D5
:1052FC0082E600BF54040020940800209808002087
:10530C00900800208C080020600800205A0A042A0B
:10531C005ED9142A00F2B38002F15C0149005B32C1
:10532C0007EB810C57F82110ACF1080C8C45DFF819
:10533C00D88100F088804A6822F00302934202D29E
:10534C0089688C45F7D1D1F80CC07A68C4F80CC0C8
:10535C00A160CCF80840CC6096E645F0010742F01D
:10536C0001032544676030464D610D61C5F80CE0C2
:10537C00C5F808E06B60AA50083400F0C9F8E2E602
:10538C004A6881E608F1010818F0030F0CF1080CCB
:10539C007FF48CAE30E0DC68A34208BF02303FF4EF
:1053AC0040AEC0E60C460B445A68C96854F8085F16
:1053BC0042F001025A603046E9608D6000F0A8F8B6
:1053CC00C1E603F15C0E03F15B004FEA4E0113E6FC
:1053DC009A0902F1390149003832A1E7BC424A4B23
:1053EC003FF400AF9C68626822F003025AE759F858
:1053FC000839994540F0828010F0030F00F1FF301E
:10540C00F5D17B6823EA04037B6064009C423FF681
:10541C00BDAE002C3FF4BAAE1C4240467FF442AE07
:10542C0064001C4200F10400FAD03BE6B3F5AA7FFD
:10543C0018D8E80B00F1780E4FEA4E017730DBE517
:10544C004FF48051EBE60121D8F80430921001FAA8
:10545C0002F21A43C8F80420614677E70123CBF81F
:10546C00043025E740F25452934220D8A80C00F1A6
:10547C007D0E4FEA4E017C30BEE51032A4E6542A74
:10548C0026D81A0B02F16F0149006E3248E7BC684E
:10549C00626822F0030205E7CAF30B0000287FF4D0
:1054AC00A8AE4244BB6842F001025A60ECE6FE2111
:1054BC004FF07F0E7E209FE501224FF00009C1E6E0
:1054CC0004F10801304600F085F8D9F80010DBE64D
:1054DC00B2F5AA7F05D8DA0B02F1780149007732D0
:1054EC001EE740F254518A4205D89A0C02F17D0114
:1054FC0049007C3214E7FE217E2211E77B6884E7A9
:10550C00E808431C5B0005E654040020704700BF0C
:10551C00704700BF38B5074C00230546084623608A
:10552C00FBF7A6F9431C00D038BD2368002BFBD039
:10553C002B6038BD5C0C0020F8B50C46224F06469B
:10554C00FFF7E4FFBB685D6825F00305291B01F636
:10555C00EF7121F47F6121F00F01A1F58054B4F5B6
:10556C00805F07DB00213046FFF7D4FFBB682B447C
:10557C00984204D03046FFF7CBFF0020F8BD6142C3
:10558C003046FFF7C7FF01300DD0104BBA681968D1
:10559C002D1B45F001053046091B55601960FFF7BE
:1055AC00B7FF0120F8BD00213046FFF7B3FFBA6802
:1055BC00831A0F2BDEDD064C0449246843F00103EB
:1055CC00001B53600860D5E75404002098080020A5
:1055DC0060080020002945D02DE9F0410D46804699
:1055EC00FFF794FF55F8047C6A49A5F1080427F0ED
:1055FC000103E2188E685068B24220F0030062D0BA
:10560C00FE0750600BD455F8087C01F1080EE41B22
:10561C00A5683B4475456FD0E768EF60BD60151811
:10562C006D68ED0742D543F001026260E350B3F5BB
:10563C00007F18D2DB0848689D100122013351F815
:10564C00337002FA05F501EBC3022843083AE26015
:10565C00A760486041F83340FC604046BDE8F0412B
:10566C00FFF756BF70475A0A042A53D89A0902F119
:10567C0039077F0002F1380501EB870051F827202C
:10568C000838904243494DD0516821F003018B42B8
:10569C0002D292689042F7D1D068E060A260846038
:1056AC00D4604046BDE8F041FFF732BF95683A4FF1
:1056BC000344BD423FD0D06843F00102E8608560EE
:1056CC006260E350B3E7FF07034407D455F8085C66
:1056DC00641BE268A0682B44C26090602F4A43F0C0
:1056EC0001001268606093428C60B6D32C4B40462C
:1056FC001968FFF721FFB0E711184968C90744D4AE
:10570C0091680344D26843F00100CA609160606004
:10571C00E350A2E7142A17D802F15C077F0002F1CC
:10572C005B05A9E7AA104B68012505FA02F21343A1
:10573C004B600246B1E743F001024C610C61E5603D
:10574C00A5606260E35088E7542A06D81A0B02F170
:10575C006F077F0002F16E058EE7B2F5AA7F06D8BF
:10576C00DA0B02F178077F0002F1770584E740F24B
:10577C005450824206D89A0C02F17D077F0002F148
:10578C007C0579E7FE277E2576E743F0010262600F
:10579C00E35062E7540400205C0400205C08002005
:1057AC0094080020F8B500BFF8BC08BC9E467047B2
:0C57BC00F8B500BFF8BC08BC9E46704762
:0857C80043000000280000204E
:0857D0006D4E000831010008D4
:0457D8000D010008B7
:1057DC00000000000102030401020304060708098B
:1057EC000204060800A24A040000000000000000A9
:1057FC00010203040607080900000000140300203E
:10580C007C030020E40300200000000000000000E6
:10581C00000000000000000000000000000000007C
:10582C00000000000000000000000000C857000845
:10583C00000000000000000000000000000000005C
:10584C00000000000000000000000000000000004C
:10585C00000000000000000000000000000000003C
:10586C00000000000000000000000000000000002C
:10587C00000000000000000000000000000000001C
:10588C00000000000000000000000000000000000C
:10589C0000000000000000000000000000000000FC
:1058AC0001000000000000000E33CDAB34126DE699
:1058BC00ECDE05000B000000000000000000000002
:1058CC0000000000000000000000000000000000CC
:1058DC0000000000000000000000000000000000BC
:1058EC0000000000000000000000000000000000AC
:1058FC00000000000000000000000000000000009C
:105C2C0028000020000000000000000054040020A8
:105C3C00540400205C0400205C0400206404002058
:105C4C00640400206C0400206C0400207404002008
:105C5C00740400207C0400207C04002084040020B8
:105C6C00840400208C0400208C0400209404002068
:105C7C00940400209C0400209C040020A404002018
:105C8C00A4040020AC040020AC040020B4040020C8
:105C9C00B4040020BC040020BC040020C404002078
:105CAC00C4040020CC040020CC040020D404002028
:105CBC00D4040020DC040020DC040020E4040020D8
:105CCC00E4040020EC040020EC040020F404002088
:105CDC00F4040020FC040020FC0400200405002037
:105CEC00040500200C0500200C05002014050020E4
:105CFC00140500201C0500201C0500202405002094
:105D0C00240500202C0500202C0500203405002043
:105D1C00340500203C0500203C05002044050020F3
:105D2C00440500204C0500204C05002054050020A3
:105D3C00540500205C0500205C0500206405002053
:105D4C00640500206C0500206C0500207405002003
:105D5C00740500207C0500207C05002084050020B3
:105D6C00840500208C0500208C0500209405002063
:105D7C00940500209C0500209C050020A405002013
:105D8C00A4050020AC050020AC050020B4050020C3
:105D9C00B4050020BC050020BC050020C405002073
:105DAC00C4050020CC050020CC050020D405002023
:105DBC00D4050020DC050020DC050020E4050020D3
:105DCC00E4050020EC050020EC050020F405002083
:105DDC00F4050020FC050020FC0500200406002032
